:100000000C942A000C9447000C9447000C94470071
:100010000C9447000C9447000C9447000C94470044
:100020000C9447000C9447000C9447000C94470034
:100030000C9447000C94F0030C9447000C94470078
:100040000C9447000C9447000C9447000C94470014
:100050000C94470011241FBECFE5D8E0DEBFCDBF12
:1000600013E0A0E6B0E0E0E6F2E102C005900D92F8
:10007000AC30B107D9F713E0ACE0B3E001C01D929A
:10008000A839B107E1F70E946E080C942E090C9470
:100090000000CF93DF9380E690E00E940F038FE68D
:1000A00090E00E948705C0E9D1E00E941B0820EA89
:1000B0003FE0FE013197F1F721503040D1F7833016
:1000C000A1F78FE790E00E940F0384E293E00E9483
:1000D000CE06682F209124033091250340912603FA
:1000E0005091270380911C0390911D03A0911E0342
:1000F000B0911F03281739074A075B0709F060C052
:10010000663009F44BC0673021F0643009F069C0F3
:1001100057C08EE890E00E940F0360912403709115
:10012000250380912603909127030E9463038EE9A3
:1001300090E00E940F036091280370912903809141
:100140002A0390912B030E9463038AEA90E00E94A5
:100150000F0360912C0370912D0380912E039091D9
:100160002F030E9463038091280390912903A0919B
:100170002A03B0912B038F3F2FEF92072FEFA20797
:100180002FEFB20711F483E02DC08E5E9E4EAE4E6F
:10019000BE4E11F082E026C084E024C08CEB90E0DB
:1001A0000E940F0382ED90E00E94870580E29EE4AA
:1001B00020E931E0F9013197F1F70197D9F711C042
:1001C00081EE90E00E940F0389EF90E00E94870586
:1001D00080E29EE420E931E0F9013197F1F70197DF
:1001E000D9F781E0DF91CF9108950F931F930E947B
:1001F00059048DE091E00E94A4040E944008082F59
:1002000085E191E00E940F03002391F484E291E0E4
:100210000E940F038AE391E00E94870580E29EE43A
:1002200020E931E0F9013197F1F70197D9F73BC0A7
:100230000130C9F58EE491E00E940F0381E090E067
:100240000E94D208609320037093210380932203BD
:100250009093230300E41CE9C8010197F1F784E0BF
:1002600090E00E94D2086093300370933103809332
:10027000320390933303C8010197F1F780E691E0D0
:100280000E940F0380912003909121030E94850317
:1002900085E791E00E940F03809130039091310334
:1002A0000E948503FFCF80E01F910F9108958DE894
:1002B00091E00E940F0360913003709131038091AF
:1002C00032039091330320912C0330912D03409100
:1002D0002E0350912F03620F731F841F951F60938D
:1002E0002C0370932D0380932E0390932F030E9471
:1002F000B007873009F03FC081EA91E00E940F0308
:1003000080913003909131030E94850389EB91E045
:100310000E940F0380912C0390912D030E9485036E
:100320008CEB91E00E94870580913003909131031E
:100330000E94E10589EB91E00E94A40460912C03E6
:1003400070912D0380912E0390912F030E94BF0581
:1003500080E29EE420E931E0F9013197F1F701975D
:10036000D9F780E29EE420E931E0F9013197F1F715
:100370000197D9F711C083ED91E00E94870580E2D3
:100380009EE420E931E0F9013197F1F70197D9F7BF
:1003900088EE91E00E940F03109230031092310317
:1003A000109232031092330381E0089580E092E0CE
:1003B0000E940F0386E192E00E948705FFCF1F9302
:1003C000CF93DF9381E392E00E940F0320912C03EF
:1003D00030912D0340912E0350912F0380912003E3
:1003E00090912103A0912203B0912303281739078C
:1003F0004A075B0708F041C00E94B10480E060E05A
:100400000E94790585E492E00E94A404809128036B
:10041000909129030E94E10580E06EE00E94790539
:1004200080912003909121030E94E10581E060E02A
:100430000E9479058FE492E00E94A40480912C032D
:1004400090912D030E94E10580E197E220E931E0DF
:10045000F9013197F1F70197D9F70E94B10489E5C5
:1004600092E00E94A40480E395E720E931E0F901DD
:100470003197F1F70197D9F7AAC00E94B10480E043
:1004800060E00E94790585E492E00E94A4048091D6
:100490002803909129030E94E10580E06EE00E940C
:1004A000790580912003909121030E94E10581E06C
:1004B00060E00E9479058FE492E00E94A40480919C
:1004C0002C0390912D030E94E10560912C03709103
:1004D0002D0380912E0390912F03209120033091C2
:1004E00021034091220350912303621B730B840B61
:1004F000950B60932C0370932D0380932E039093A0
:100500002F030E94B007873009F050C08BE692E0BD
:100510000E940F038091300390913103A091320328
:10052000B0913303209120033091210340912203A5
:1005300050912303820F931FA41FB51F8093300394
:1005400090933103A0933203B093330380E197E299
:1005500020E931E0F9013197F1F70197D9F710E07F
:10056000C0E9D1E081E069E00E94790585E892E088
:100570000E94A40488E893E1FE013197F1F7019706
:10058000D9F781E069E00E94790580912C03909170
:100590002D030E94E10588E893E1FE013197F1F710
:1005A0000197D9F71F5F1530E9F611C08DE892E089
:1005B0000E94A40480E29EE420E931E0F901319731
:1005C000F1F70197D9F782EA92E00E940F0381E0E8
:1005D000DF91CF911F910895D19AD99A0895582FFC
:1005E000D99880E493E00197F1F741E020E030E012
:1005F00060E473E0842F852311F0D99A01C0D99863
:10060000CB010197F1F7440F2F5F3F4F28303105A1
:1006100089F7D99A80E493E00197F1F708951F9341
:10062000CF93DF93EC0110E003C00E94EF021F5F45
:10063000FE01E10FF11D80818823B9F7DF91CF9191
:100640001F910895CF93DF93EC01FC01849105C0C5
:1006500021960E94EF02FE0184918823C9F7DF9161
:10066000CF9108958A3010F0895A01C0805D0E94B0
:10067000EF0208951F93182F82958F700E94320306
:10068000812F8F700E9432031F9108951F93182F9E
:10069000892F0E943A03812F0E943A031F910895E7
:1006A000EF92FF920F931F937B018C01C801AA2741
:1006B000BB270E944603C7010E9446031F910F916A
:1006C000FF90EF9008950F931F93DF93CF93CDB7D3
:1006D000DEB764970FB6F894DEBF0FBECDBF8E01B4
:1006E0000F5F1F4FA8012AE030E00E94AD08C8014B
:1006F0000E940F0364960FB6F894DEBF0FBECDBF05
:10070000CF91DF911F910F9108950F931F93DF9366
:10071000CF93CDB7DEB764970FB6F894DEBF0FBEA8
:10072000CDBF8E010F5F1F4FB8014AE050E00E941D
:100730008C08C8010E940F0364960FB6F894DEBFC0
:100740000FBECDBFCF91DF911F910F9108951F93E1
:10075000182F82958F708A3020F490E00E948503D4
:1007600003C0895C0E94EF02812F8F708A3020F4D1
:1007700090E00E94850303C0895C0E94EF021F91F4
:10078000089588E18AB986E880BD83E389B910BC01
:1007900008951BB81AB810BC19B810BC089582E0AF
:1007A0008BB988E98AB986E880BD80E189B910BC37
:1007B00008955D9BFECF8CB908955F9BFECF8CB1F1
:1007C0000895FC0104C05D9BFECF8CB931968081F9
:1007D0008823C9F7089590931B0380931A03089503
:1007E0001F920F920FB60F9211242F933F934F93A6
:1007F0005F936F937F938F939F93AF93BF93EF9389
:10080000FF93E0911A03F0911B030995FF91EF917B
:10081000BF91AF919F918F917F916F915F914F9118
:100820003F912F910F900FBE0F901F9018950F932F
:100830001F93DF93CF93CDB7DEB764970FB6F894CD
:10084000DEBF0FBECDBF8E010F5F1F4FB8014AE064
:1008500050E00E948C08C8010E94E10364960FB624
:10086000F894DEBF0FBECDBFCF91DF911F910F91E6
:100870000895AE9898B3282F207F9F70292B28BB0E
:10088000AF9A20E43FE1F9013197F1F7AF9895E095
:100890009A95F1F798B38295807F9F70982B98BBBB
:1008A000AF9AC9010197F1F7AF98C9010197F1F724
:1008B00008950F931F9387B3806F87BB84B3806CB9
:1008C00084BB88B38F7088BB85B38F7385BB00E40E
:1008D0001FE1C8010197F1F783E30E94390482E325
:1008E0000E94390488E20E9439048EE00E94390493
:1008F00081E00E943904C8010197F1F786E00E9467
:1009000039041F910F910895AE9A98B3282F207F34
:100910009F70292B28BBAF9A20E43FE1F901319762
:10092000F1F7AF9895E09A95F1F798B38295807FAB
:100930009F70982B98BBAF9AC9010197F1F7AF98B8
:10094000C9010197F1F70895CF93DF93EC0103C03C
:100950000E948404219688818823D1F7DF91CF916A
:10096000089581E00E943904089580E40E943904CA
:100970008EE00E9484048EE00E94840484E00E9441
:1009800084048EE00E94840485E10E94840484E053
:100990000E9484048AE00E9484048AE00E94840405
:1009A00080E00E94840480E00E9484048AE00E9427
:1009B000840480E00E94840480E00E94840481E139
:1009C0000E9484048EE00E94840480E00E948404DB
:1009D0008EE00E94840481E10E94840481E10E94EF
:1009E00084048FE10E9484048BE10E9484048BE1E3
:1009F0000E9484048FE10E94840480E00E948404A9
:100A000080E00E94840480E00E9484048AE00E94C6
:100A1000840485E10E94840481E10E9484048EE0C4
:100A20000E94840484E00E94840480E00E94840484
:100A300080E00E94840480E00E94840480E00E94A0
:100A4000840481E00E94840481E00E94840481E0A7
:100A50000E9484048FE10E94840480E00E94840448
:100A600080E00E94840480E00E94840480E00E9470
:100A7000840480E00E94840480E00E9484048EE06C
:100A80000E94840481E10E9484048EE00E94840418
:100A900080E00E94840480E00E94840480E00E9440
:100AA000840480E00E9484048EE00E94840481E03B
:100AB0000E9484048FE10E94840480E00E948404E8
:100AC00086E00E94840484E00E9484048EE00E94F8
:100AD000840480E00E94840484E00E94840484E012
:100AE0000E94840484E00E94840484E00E948404C0
:100AF0000895882329F4862F80680E943904089578
:100B0000813021F4862F806C0E94390408951F9350
:100B1000CF93DF93EC010E94B10410E00AC00E9461
:100B200084041F5F103121F481E060E00E947905A8
:100B300021968881882399F7DF91CF911F9108959D
:100B40000F931F93CF93DF938C01C7E0D0E0C801D0
:100B50000C2E02C0959587950A94E2F780FF02C09B
:100B600081E301C080E30E94840421978FEFCF3F8F
:100B7000D80769F7DF91CF911F910F9108950F93D7
:100B80001F93DF93CF93CDB7DEB764970FB6F8947A
:100B9000DEBF0FBECDBF8E010F5F1F4FA8012AE041
:100BA00030E00E94AD08C8010E94A40464960FB60C
:100BB000F894DEBF0FBECDBFCF91DF911F910F9193
:100BC00008950F931F93DF93CF93CDB7DEB764974C
:100BD0000FB6F894DEBF0FBECDBF8E010F5F1F4F63
:100BE000B8014AE050E00E948C08C8010E94A404A9
:100BF00064960FB6F894DEBF0FBECDBFCF91DF91E4
:100C00001F910F9108951F93982F92959F70182F01
:100C10001F709A3028F4892F90E00E94E10517C0D8
:100C20009A3011F481E411C09B3011F482E40DC0BC
:100C30009C3011F483E409C09D3011F484E405C0B4
:100C40009E3011F485E401C086E40E9484041A30C9
:100C500028F4812F90E00E94E10517C01A3011F4AA
:100C600081E411C01B3011F482E40DC01C3011F47A
:100C700083E409C01D3011F484E405C01E3011F472
:100C800085E401C086E40E9484041F9108952FB773
:100C9000F89480910C039CB1E82FF0E0EC5CFC4FE1
:100CA00090838F5F80930C03843611F410920C03B1
:100CB0002FBF0895582FA4E3B3E0282F392FF9014F
:100CC00006C09D918191981711F080E008958E2FB4
:100CD000851B8617B0F381E0089585E50E94D9034E
:100CE00085E50E94D90380E00E94D90380E00E943C
:100CF000D90380E00E94D90380E00E94D90380E0FC
:100D00000E94D9038FEF0E94D9030895CF92DF92FA
:100D1000EF92FF920F931F93CF93DF936C01162FE7
:100D20001F5F0E946D06812F0E94D903812F81953C
:100D30000E94D90384ED0E94D90384EDE82EFF249C
:100D4000C12FD0E021970BC08601080F191FF801B1
:100D500080810E94D903F8018081E80EF3948F2DE1
:100D600090E08C179D0784F38E2D81950E94D90306
:100D700080E00E94D903DF91CF911F910F91FF90E6
:100D8000EF90DF90CF90089584E6E4E3F3E0DF0195
:100D90001D928A95E9F710920C0308951F93CF9343
:100DA000DF93EC010E94C40681EE92E064E00E94B1
:100DB000860688EE93E020E931E0F9013197F1F7FA
:100DC0000197D9F720E030E0F901EC5CFC4FD90144
:100DD000AB51BD4F90818C91981711F010E006C077
:100DE0002F5F3F4F2E30310579F711E0E2E4F3E059
:100DF000ADE0B3E081918D9383E0EE34F807D1F755
:100E0000188219821A821B82E0E1F3E060E070E050
:100E1000208130E040E050E0062E04C0220F331F56
:100E2000441F551F0A94D2F788819981AA81BB81FA
:100E3000822B932BA42BB52B88839983AA83BB8306
:100E40003197685F7F4F83E0EC30F80709F71C8229
:100E50001D821E821F82389660E070E0208130E0A3
:100E600040E050E0062E04C0220F331F441F551FE0
:100E70000A94D2F78C819D81AE81BF81822B932B06
:100E8000A42BB52B8C839D83AE83BF833197685F82
:100E90007F4F83E0E031F80709F7188619861A8634
:100EA0001B86389660E070E0208130E040E050E042
:100EB000062E04C0220F331F441F551F0A94D2F779
:100EC00088859985AA85BB85822B932BA42BB52B6E
:100ED00088879987AA87BB873197685F7F4F83E0B0
:100EE000E431F80709F7113011F086E001C087E01E
:100EF000DF91CF911F910895FB018093F6028081CD
:100F00008093F70281818093F80282818093F902B5
:100F100083818093FA020E94C40683EF92E068E026
:100F20000E94860688EE93E020E931E0F9013197CE
:100F3000F1F70197D9F720E030E0F901EC5CFC4FC4
:100F4000D901A550BD4F90818C91981711F086E082
:100F500008952F5F3F4F2031310579F787E00895DD
:100F6000DF93CF9300D000D0CDB7DEB76C83272FAF
:100F7000382F492F55272B839C01442755272A8337
:100F8000692F772788279927698386E0BE016F5FDD
:100F90007F4F0E947C070F900F900F900F90CF9182
:100FA000DF910895DF93CF9300D000D0CDB7DEB7A7
:100FB0006C83272F382F492F55272B839C014427DB
:100FC00055272A83692F772788279927698385E002
:100FD000BE016F5F7F4F0E947C070F900F900F90B4
:100FE0000F90CF91DF910895DF93CF9300D000D081
:100FF000CDB7DEB76C83272F382F492F55272B838A
:101000009C01442755272A83692F7727882799270A
:10101000698384E0BE016F5F7F4F0E947C070F9061
:101020000F900F900F90CF91DF910895BC0184E055
:101030000E947C0708950E94C40680ED92E063E060
:101040000E94860688EE93E020E931E0F9013197AD
:10105000F1F70197D9F720E030E0F901EC5CFC4FA3
:10106000D901AD52BD4F90818C91981711F082E05B
:1010700008952F5F3F4F2E30310579F783E00895B3
:101080000E94EC0278940E94CF0387E496E00E94CD
:10109000EB030E94C4068DEB92E064E00E9486069A
:1010A00088EE93E020E931E0F9013197F1F70197FB
:1010B000D9F720E030E0F901EC5CFC4FD901AF53E7
:1010C000BD4F90818C91981711F080E008952F5FAB
:1010D0003F4F2F30310579F781E0089580E082306D
:1010E00091F0833028F4882341F08130C1F708C0A3
:1010F000833061F0843099F70CC00E94F500EFCF87
:101100000E944900ECCF0E94DF01E9CF0E94D60186
:10111000E6CF0E945701E3CFFB019F01E8944230E4
:10112000C4F04532B4F44A3029F497FB1EF490958C
:1011300081959F4F642F77270E94F808805D8A333E
:101140000CF0895D8193CB010097A1F716F45DE265
:1011500051931082C9010C94D808FA01CF93FF93E0
:10116000EF932230CCF02532BCF4C22F2C2F332742
:1011700044275527FF93EF930E940C09EF91FF91AD
:10118000605D6A330CF0695D6193B901CA0160501A
:1011900070408040904051F710828F919F91CF9185
:1011A0000C94D808A6E1B0E044E050E00C94EA08C2
:1011B000DC01FC01672F71917723E1F7329704C0BE
:1011C0007C916D9370836291AE17BF07C8F3089549
:1011D000DC01CB01FC01E199FECF06C0FFBBEEBBF9
:1011E000E09A31960DB20D9241505040B8F70895F3
:1011F000AA1BBB1B51E107C0AA1FBB1FA617B7073D
:1012000010F0A61BB70B881F991F5A95A9F7809558
:101210009095BC01CD010895A1E21A2EAA1BBB1B1B
:10122000FD010DC0AA1FBB1FEE1FFF1FA217B307B2
:10123000E407F50720F0A21BB30BE40BF50B661FC8
:10124000771F881F991F1A9469F76095709580958C
:1012500090959B01AC01BD01CF010895F894FFCF9B
:10126000206964656C5F7374617465200D0A0050B9
:101270006C65617365205363616E20546167002063
:1012800054616720206578697374200D0A000D0A87
:1012900020436F6D70616E792049442020000D0A53
:1012A000205461672049442020000D0A20506F69B6
:1012B0006E7473204E756D626572200020657272C7
:1012C0006F722072656164696E6720546167200DDA
:1012D0000A004572726F722072656164696E6720E0
:1012E00000206572726F7220546167204E6F742007
:1012F00056616C6964200D0A004572726F72205449
:101300006167204E6F742056616C69640077656C6C
:10131000636F6D650020696E69745F7374617465D5
:10132000200D0A00204E4643204E6F7420436F6EFE
:101330006E6563746564200D0A00506C65617365A9
:1013400020636F6E6E656374204E46432000204E0E
:10135000464320436F6E6E6563746564200D0A001A
:101360000D0A4D616368696E655F706F696E7473B5
:10137000203D0D0A000D0A746F74616C5F6C6F6123
:10138000645F706F696E7473203D0D0A00204C6FAE
:1013900061642043617264205374617465200D0A96
:1013A0000020446F6E65206C6F6164696E67205029
:1013B0006F696E7473200D0A00202000446F6E6503
:1013C000206C6F6164696E6720506F696E74732062
:1013D0003D20004572726F72206C6F6164696E67A8
:1013E00020506F696E7473004572726F72206C6F5B
:1013F0006164696E6720506F696E7473200D0A0016
:10140000206D61737465725F636172645F73746190
:101410007465200D0A00312D506C61792054686587
:101420002047616D6520322D53657474696E677352
:101430000020757365725F636172645F73746174B9
:1014400065200D0A00546167204944203A2000506D
:101450006F696E7473203A20004E6F7420456E6F72
:1014600075676820506F696E74730020446F6E65F5
:101470002077726974652054616720506F696E74BB
:1014800073200D0A002020202020202000457272A9
:101490006F722077726974696E6720506F696E741D
:1014A0007300206572726F722077726974652054C0
:1014B000616720506F696E7473200D0A0014011467
:1014C000010000FF00FF000000FF02FED51516001E
:1014D0004A01000000FF00FF000000FF0FF1D54BA4
:1014E00001400130040000FF00FF000000FF13ED89
:1014F000D541004001A200000000000000FF00FFF5
:0C150000000000FF03FDD54100EA0000E0
:00000001FF
