:100000000C942A000C9447000C9447000C94470071
:100010000C9447000C9447000C9447000C94470044
:100020000C9447000C9447000C9447000C94470034
:100030000C9447000C94F00C0C9447000C9447006F
:100040000C9447000C9447000C9447000C94470014
:100050000C94470011241FBECFE5D8E0DEBFCDBF12
:1000600015E0A0E6B0E0E8E2FAE202C005900D92E9
:10007000A838B107D9F716E0A8E8B5E001C01D928D
:10008000A431B107E1F70E9401140C9412150C94ED
:100090000000EF92FF920F931F937B018C0120E0F1
:1000A00030E040E05FE40E94490388238CF0C801FF
:1000B000B70120E030E040E05FE40E94C1010E940F
:1000C000A9039B01AC01205030404040504806C07D
:1000D000C801B7010E94A9039B01AC01B901CA0183
:1000E0001F910F91FF90EF900895A0E0B0E0EBE733
:1000F000F0E00C941F14DC012B01FA019C9192306A
:1001000008F439C1EB018881823008F433C194309E
:1001100069F4843009F02FC111969C91119789815F
:10012000981709F428C1A2E3B4E025C1843009F48A
:1001300021C18230A9F4923009F01DC19A01AD01AC
:1001400088E0EA010990AE01E90109929E0181501F
:10015000C1F7E201898111969C918923818308C1AD
:10016000923009F407C112962D903C901397EB0141
:100170008A819B811496AD90BD90CD90DC901797AD
:10018000EC80FD800E811F819101281B390BB90184
:1001900037FF04C066277727621B730B6032710537
:1001A0000CF061C0121613066CF537014801062EDB
:1001B00004C096948794779467940A94D2F721E0C8
:1001C00030E040E050E004C0220F331F441F551FB1
:1001D0006A95D2F721503040404050402E213F21B7
:1001E00040235123211531054105510521F021E01E
:1001F00030E040E050E079018A01E628F72808293C
:1002000019293CC0232BD1F1260E371E350146019A
:10021000062E04C096948794779467940A94D2F734
:1002200021E030E040E050E004C0220F331F441FC3
:10023000551F6A95D2F721503040404050402A2146
:100240003B214C215D21211531054105510521F04E
:1002500021E030E040E050E059016A01A628B728CB
:10026000C828D9280BC0821593052CF01C01AA249C
:10027000BB24650103C0EE24FF24870111969C91E5
:10028000D20111968C91981709F445C0992339F041
:10029000A80197012A193B094C095D0906C0A6016E
:1002A00095012E193F09400B510B57FD08C01182D3
:1002B0003382228224833583468357831DC081E0A5
:1002C00081833382228288279927DC01821B930B4A
:1002D000A40BB50B84839583A683B7830DC0220F2F
:1002E000331F441F551F24833583468357838281E0
:1002F000938101979383828324813581468157813D
:10030000DA01C9010197A109B1098F5F9F4FAF4F72
:10031000BF4328F30BC0918333822282EA0CFB1C7B
:100320000C1D1D1DE482F5820683178383E0808304
:10033000248135814681578157FF1AC0C901AA27F8
:1003400097FDA095BA2F81709070A070B0705695EF
:10035000479537952795822B932BA42BB52B848318
:100360009583A683B7838281938101969383828349
:10037000DF0101C0D201CD01CDB7DEB7E2E10C94BF
:100380003B14A0E2B0E0E7ECF1E00C942B1469839D
:100390007A838B839C832D833E834F835887E9E048
:1003A000EE2EF12CEC0EFD1ECE010196B7010E943F
:1003B0009A058E010F5E1F4FCE010596B8010E946F
:1003C0009A058A8991E089278A8BC701B801AE0115
:1003D000475E5F4F0E9475000E94C504A096E6E04C
:1003E0000C944714A0E2B0E0E8EFF1E00C942B1479
:1003F00069837A838B839C832D833E834F835887C5
:10040000F9E0EF2EF12CEC0EFD1ECE010196B701A6
:100410000E949A058E010F5E1F4FCE010596B8010E
:100420000E949A05C701B801AE01475E5F4F0E9466
:1004300075000E94C504A096E6E00C944714A0E263
:10044000B0E0E5E2F2E00C941F1469837A838B83B9
:100450009C832D833E834F835887CE010196BE0136
:10046000675F7F4F0E949A05CE010596BE016F5EC1
:100470007F4F0E949A059985923088F08989823051
:10048000C8F0943019F4823051F404C0843029F457
:10049000923081F482E394E0C6C0923049F420E0C7
:1004A0009A858A89981321E02A87CE010996BBC0D4
:1004B000823049F420E09A858A89981321E02A8BBA
:1004C000CE014196B0C02D843E844F8458886D88FB
:1004D0007E888F88988CEE24FF248701AA24BB2471
:1004E000650140E050E060E070E0E0E0F0E0C10174
:1004F00081709070892BE9F0E60CF71C081D191D1E
:100500009A01AB012A0D3B1D4C1D5D1D80E090E062
:10051000A0E0B0E0E614F7040805190520F481E036
:1005200090E0A0E0B0E0BA01A901480F591F6A1F8E
:100530007B1FAA0CBB1CCC1CDD1C97FE08C081E0F5
:1005400090E0A0E0B0E0A82AB92ACA2ADB2A3196B6
:10055000E032F10549F0660C771C881C991C569412
:10056000479437942794C3CFFA85EA892B893C892D
:100570008B859C85280F391F2E5F3F4F17C0CA01FE
:1005800081709070892B61F016950795F794E79428
:1005900080E090E0A0E0B0E8E82AF92A0A2B1B2BC3
:1005A00076956795579547952F5F3F4F77FDE7CF36
:1005B0000CC0440F551F661F771F17FD4160EE0CDE
:1005C000FF1C001F111F21503040403090E05907A0
:1005D00090E0690790E4790760F32B8F3C8FDB0193
:1005E000CA018F779070A070B07080349105A1051A
:1005F000B10561F447FD0AC0E114F10401051105DC
:1006000029F0405C5F4F6F4F7F4F40781A8EFE1786
:1006100011F081E08A8F4D8F5E8F6F8F78A383E01A
:10062000898FCE0149960E94C504A096E2E10C9400
:100630003B14A8E1B0E0EFE1F3E00C942B146983E4
:100640007A838B839C832D833E834F83588789E0F5
:10065000E82EF12CEC0EFD1ECE010196B7010E9492
:100660009A058E010F5E1F4FCE010596B8010E94BC
:100670009A058985823040F08989823028F0C70147
:10068000B8010E94120601C08FEF6896E6E00C9454
:100690004714A8E1B0E0EFE4F3E00C942B14698375
:1006A0007A838B839C832D833E834F83588789E095
:1006B000E82EF12CEC0EFD1ECE010196B7010E9432
:1006C0009A058E010F5E1F4FCE010596B8010E945C
:1006D0009A058985823040F08989823028F0C701E7
:1006E000B8010E94120601C08FEF6896E6E00C94F4
:1006F0004714A8E1B0E0EFE7F3E00C942B14698312
:100700007A838B839C832D833E834F83588789E034
:10071000E82EF12CEC0EFD1ECE010196B7010E94D1
:100720009A058E010F5E1F4FCE010596B8010E94FB
:100730009A058985823040F08989823028F0C70186
:10074000B8010E94120601C081E06896E6E00C94B0
:100750004714ACE0B0E0EFEAF3E00C942F146983A7
:100760007A838B839C83CE010196BE016B5F7F4FA2
:100770000E949A058D81823061F1823050F184307F
:1007800021F48E81882351F12EC02F81388537FDC9
:1007900020C06E812F3131051CF06623F9F023C093
:1007A0008EE190E0821B930B29853A854B855C8511
:1007B00004C056954795379527958A95D2F76623B5
:1007C000B1F050954095309521953F4F4F4F5F4F79
:1007D0000EC020E030E040E050E009C02FEF3FEFD6
:1007E0004FEF5FE704C020E030E040E050E8B9019F
:1007F000CA012C96E2E00C944B14A8E0B0E0E3E0D0
:10080000F4E00C9427147B018C01611571058105BE
:10081000910519F482E0898360C083E089838EE1C9
:10082000C82ED12CDC82CB82ED82FE820F8318870A
:10083000C801B7010E947604FC013197F7FF3BC065
:10084000222733272E1B3F0B57016801022E04C0BD
:10085000D694C794B794A7940A94D2F740E050E096
:1008600060E070E081E090E0A0E0B0E004C0880FBC
:10087000991FAA1FBB1F2A95D2F70197A109B10999
:100880008E219F21A023B1230097A105B10521F05E
:1008900041E050E060E070E04A295B296C297D2945
:1008A0004D835E836F8378878EE190E08E1B9F0B74
:1008B0009C838B8312C0309781F00E2E04C0EE0C07
:1008C000FF1C001F111F0A94D2F7ED82FE820F83D6
:1008D0001887CE1ADF0ADC82CB821A82CE010196FB
:1008E0000E94C5042896EAE00C944314EF92FF920C
:1008F0000F931F937B018C0180E0E81680E0F806DF
:1009000081E0080780E0180788F48FEFE816F1040B
:100910000105110531F028F088E090E0A0E0B0E09A
:1009200017C080E090E0A0E0B0E012C080E0E816E0
:1009300080E0F80680E0080781E0180728F088E1E9
:1009400090E0A0E0B0E004C080E190E0A0E0B0E082
:1009500020E230E040E050E0281B390B4A0B5B0BF3
:1009600004C016950795F794E7948A95D2F7F70196
:10097000E65CFB4F8081281B310941095109C901FF
:100980001F910F91FF90EF900895DF92EF92FF92E9
:100990000F931F93FC01E480F58006811781D180BD
:1009A0008081823048F480E090E0A0E1B0E0E82A65
:1009B000F92A0A2B1B2BA5C0843009F49FC0823072
:1009C00021F4EE24FF24870105C0E114F1040105A0
:1009D000110519F4E0E0F0E096C0628173819FEFA9
:1009E000623879070CF05BC022E83FEF261B370B1B
:1009F0002A3131052CF020E030E040E050E02AC000
:100A0000B801A701022E04C07695679557954795C2
:100A10000A94D2F781E090E0A0E0B0E004C0880F33
:100A2000991FAA1FBB1F2A95D2F70197A109B109E7
:100A30008E219F21A023B1230097A105B10521F0AC
:100A400081E090E0A0E0B0E09A01AB01282B392BC7
:100A50004A2B5B2BDA01C9018F779070A070B070C0
:100A600080349105A105B10539F427FF09C0205C48
:100A70003F4F4F4F5F4F04C0215C3F4F4F4F5F4F81
:100A8000E0E0F0E02030A0E03A07A0E04A07A0E470
:100A90005A0710F0E1E0F0E079018A0127C06038E0
:100AA000710564F5FB01E158FF4FD801C7018F774D
:100AB0009070A070B07080349105A105B10539F433
:100AC000E7FE0DC080E490E0A0E0B0E004C08FE35A
:100AD00090E0A0E0B0E0E80EF91E0A1F1B1F17FF10
:100AE00005C016950795F794E794319687E016951B
:100AF0000795F794E7948A95D1F705C0EE24FF2473
:100B00008701EFEFF0E06E2F679566276795902FCE
:100B10009F77D794DD24D7948E2F8695492F462B27
:100B2000582F5D29B701CA011F910F91FF90EF90D7
:100B3000DF900895FC01DB01408151812281622F09
:100B40006F7770E0221F2227221F9381892F880F41
:100B5000822B282F30E0991F9927991F11969C937B
:100B6000119721153105A9F541155105610571054B
:100B700011F482E037C082E89FEF13969C938E9326
:100B800012979A01AB0167E0220F331F441F551FD4
:100B90006A95D1F783E08C930DC0220F331F441F59
:100BA000551F12968D919C911397019713969C93C4
:100BB0008E931297203080E0380780E0480780E469
:100BC000580758F314962D933D934D935C931797C4
:100BD00008952F3F310579F44115510561057105DF
:100BE00019F484E08C93089564FF03C081E08C9332
:100BF00012C01C9210C02F57304013963C932E9376
:100C0000129783E08C9387E0440F551F661F771F70
:100C10008A95D1F7706414964D935D936D937C9390
:100C2000179708951F93DC01FB019C91923008F403
:100C300047C08081823008F443C0943051F411964B
:100C40001C91843099F58181682F70E0611B7109D6
:100C50003FC0843021F0923031F48230B9F181818B
:100C6000882389F12DC011961C9111978230F1F0E3
:100C700081811817D9F412962D913C911397828196
:100C800093818217930794F028173907BCF01496C4
:100C90008D919D910D90BC91A02D2481358146812F
:100CA0005781281739074A075B0718F4112341F0C9
:100CB0000AC082179307A407B50740F4112319F05F
:100CC00061E070E005C06FEF7FEF02C060E070E0B0
:100CD000CB011F9108951F93CF93DF9380E690E09F
:100CE0000E94A70A81E790E00E94870EC0E9D1E048
:100CF0000E941B1120EA3FE0FE013197F1F72150DD
:100D00003040D1F78330A1F781E890E00E94A70A34
:100D100080EA95E00E94CE0F182F2091A005309117
:100D2000A1054091A2055091A3058091980590914D
:100D30009905A0919A05B0919B05281739074A0794
:100D40005B0771F08091A4059091A505A091A6057F
:100D5000B091A7058F5F9F4FAF4FBF4F09F014E0D1
:100D600080E990E00E94A70A6091A0057091A1051A
:100D70008091A2059091A3050E94FB0A80EA90E071
:100D80000E94A70A6091A4057091A5058091A6050F
:100D90009091A7050E94FB0A8CEA90E00E94A70AA6
:100DA0006091A8057091A9058091AA059091AB0565
:100DB0000E94FB0A163009F1173021F0143009F0B7
:100DC0003FC02DC08091A4059091A505A091A605D6
:100DD000B091A7058F3F2FEF92072FEFA2072FEFBC
:100DE000B20711F483E02DC08E5E9E4EAE4EBE4E15
:100DF00011F082E026C084E024C08EEB90E00E94D7
:100E0000A70A84ED90E00E94870E80E29EE420E92C
:100E100031E0F9013197F1F70197D9F711C083EE6D
:100E200090E00E94A70A8BEF90E00E94870E80E27C
:100E30009EE420E931E0F9013197F1F70197D9F704
:100E400081E0DF91CF911F9108950F931F930E942E
:100E5000C8130E94F6110E94590D8FE091E00E9484
:100E6000A40D0E944011082F87E191E00E94A70A7B
:100E7000002391F486E291E00E94A70A8CE391E0BE
:100E80000E94870E80E29EE420E931E0F90131976B
:100E9000F1F70197D9F767C0013009F064C080E528
:100EA00091E00E94A70A81E090E00E949C14609368
:100EB0009C0570939D0580939E0590939F0500E48B
:100EC0001CE9C8010197F1F784E090E00E949C14AE
:100ED0006093AC057093AD058093AE059093AF051C
:100EE000C8010197F1F788E090E00E949C1460939C
:100EF00098057093990580939A0590939B05C80176
:100F00000197F1F782E691E00E94A70A80919C0583
:100F100090919D050E941D0B88E791E00E94A70A11
:100F20008091AC059091AD050E941D0B81E991E087
:100F30000E94A70A80919805909199050E941D0B27
:100F400083EA91E00E94A70A86EA91E00E94870E58
:100F500080E29EE420E931E0F9013197F1F7019751
:100F6000D9F781E001C080E01F910F91089584EBD3
:100F700091E00E94A70A6091AC057091AD05809147
:100F8000AE059091AF052091A8053091A90540913B
:100F9000AA055091AB05620F731F841F951F6093C4
:100FA000A8057093A9058093AA059093AB050E94AC
:100FB000B010873009F03BC08AEC91E00E94A70A8C
:100FC0008091AC059091AD050E941D0B82EE91E0E1
:100FD0000E94A70A8091A8059091A9050E941D0B67
:100FE00085EE91E00E94870E8091AC059091AD0551
:100FF0000E94E10E82EE91E00E94A40D8091A8056E
:101000009091A9050E94E10E80E29EE420E931E082
:10101000F9013197F1F70197D9F780E29EE420E9D1
:1010200031E0F9013197F1F70197D9F711C08CEF51
:1010300091E00E94870E80E29EE420E931E0F90110
:101040003197F1F70197D9F781E192E00E94A70A61
:101050001092AC051092AD051092AE051092AF053E
:1010600084E090E040E050E060E070E00E94A21474
:1010700080E49CE90197F1F781E008951F93CF93F5
:10108000DF9389E292E00E94A70A81E492E00E9445
:10109000870E0E9400128F31E1F3823049F08434D0
:1010A000A1F0813021F58CE592E00E94A70A0FC1E2
:1010B0008EE692E00E94A70A8BE792E00E94A70AC0
:1010C00084E992E00E94870E24C081EB92E00E94A6
:1010D000A70A8FEB92E00E94870E80E29EE420E94F
:1010E00031E0F9013197F1F70197D9F7F0C089ECB8
:1010F00092E00E94A70A8AED92E00E94870E80E2A9
:101100009EE420E931E0F9013197F1F70197D9F731
:10111000DCC00E9400128F31E1F3823009F45BC021
:10112000843409F4AFC0813009F0BEC087EF92E08B
:101130000E94A70A8CE093E00E94870E81E060E0A5
:101140000E94790EC0E0D0E00E940012182F8F316B
:10115000D9F38534A9F0843409F4B9C08A3080F415
:1011600090E00E94E10ECE0153E0880F991F5A953E
:10117000E1F7CC0FDD1FC80FD91FC10FD11DE4CF80
:10118000AE0160E070E040939C0550939D05609334
:101190009E0570939F0581E090E00E94A21480E478
:1011A0009CE90197F1F78DE193E00E94870E81E0C1
:1011B00060E00E94790E80919C0590919D050E94AF
:1011C000E10E80E29EE420E931E0F9013197F1F788
:1011D0000197D9F754C08DE293E00E94A70A81E4F9
:1011E00093E00E94870E81E060E00E94790EC0E0EB
:1011F000D0E00E940012182F8F31D9F38534A9F066
:10120000843409F464C08A3080F490E00E94E10ED6
:10121000CE0133E0880F991F3A95E1F7CC0FDD1F1F
:10122000C80FD91FC10FD11DE4CFAE0160E070E03F
:10123000409398055093990560939A0570939B0588
:1012400088E090E00E94A21480E49CE90197F1F705
:1012500081E593E00E94870E81E060E00E94790EB4
:1012600080919805909199050E94E10E80E29EE49C
:1012700020E931E0F9013197F1F70197D9F70E94A0
:10128000B10D25C081EB92E00E94A70A8FEB92E09E
:101290000E94870E80E29EE420E931E0F901319757
:1012A000F1F70197D9F713C089EC92E00E94A70AE1
:1012B0008AED92E00E94870E80E29EE420E931E010
:1012C000F9013197F1F70197D9F783E001C081E087
:1012D000DF91CF911F9108951F93CF93DF9380E605
:1012E00093E00E94A70A2091A8053091A90580915A
:1012F0009C0590919D052817390708F05BC086E78B
:1013000093E00E94A70A80919C0590919D050E9400
:101310001D0B8CE893E00E94A70A8091A80590918C
:10132000A9050E941D0B8EE993E00E94A70A0E9466
:10133000B10D80E060E00E94790E8AEB93E00E949C
:10134000A40D8091A4059091A5050E94E10E80E076
:101350006EE00E94790E80919C0590919D050E94FF
:10136000E10E81E060E00E94790E84EC93E00E943F
:10137000A40D8091A8059091A9050E94E10E80E13D
:1013800097E220E931E0F9013197F1F70197D9F7B8
:101390000E94B10D8EEC93E00E94A40D0E94F11109
:1013A00080E29EE420E931E0F9013197F1F70197FD
:1013B000D9F791C00E94B10D80E060E00E94790EE3
:1013C0008AEB93E00E94A40D8091A4059091A5055D
:1013D0000E94E10E80E06EE00E94790E80919C05F3
:1013E00090919D050E94E10E81E060E00E94790EDF
:1013F00084EC93E00E94A40D8091A8059091A9052A
:101400000E94E10E6091A8057091A90520919C05AC
:1014100030919D05621B730B80E090E06093A805FE
:101420007093A9058093AA059093AB050E94B01014
:10143000873009F053C080EE93E00E94A70A4091E4
:101440009C0550919D0560919E0570919F0580912E
:10145000AC059091AD05A091AE05B091AF05480FD8
:10146000591F6A1F7B1F4093AC055093AD056093D5
:10147000AE057093AF0584E090E00E94A21480E472
:101480009CE90197F1F710E0C0E9D1E00E94E71173
:1014900081E069E00E94790E8AEF93E00E94A40D3A
:1014A00080EA9FE0FE013197F1F70197D9F781E0DB
:1014B00069E00E94790E8091A8059091A9050E948B
:1014C000E10E80EA9FE0FE013197F1F70197D9F72D
:1014D0001F5F1430D9F60E94EC1111C082E094E035
:1014E0000E94870E80E29EE420E931E0F901319705
:1014F000F1F70197D9F787E194E00E94A70A81E00C
:10150000DF91CF911F9108958E9A969A0895582F42
:10151000969880E493E00197F1F741E020E030E015
:1015200060E473E0842F852311F0969A01C09698A9
:10153000CB010197F1F7440F2F5F3F4F2830310562
:1015400089F7969A80E493E00197F1F708951F9345
:10155000CF93DF93EC0110E003C00E94870A1F5F66
:10156000FE01E10FF11D80818823B9F7DF91CF9152
:101570001F910895CF93DF93EC01FC01849105C086
:1015800021960E94870AFE0184918823C9F7DF9182
:10159000CF9108958A3010F0895A01C0805D0E9471
:1015A000870A08951F93182F82958F700E94CA0A88
:1015B000812F8F700E94CA0A1F9108951F93182FC0
:1015C000892F0E94D20A812F0E94D20A1F9108956A
:1015D000EF92FF920F931F937B018C01C801AA2702
:1015E000BB270E94DE0AC7010E94DE0A1F910F91ED
:1015F000FF90EF9008950F931F93DF93CF93CDB794
:10160000DEB764970FB6F894DEBF0FBECDBF8E0174
:101610000F5F1F4FA8012AE030E00E947714C80135
:101620000E94A70A64960FB6F894DEBF0FBECDBF26
:10163000CF91DF911F910F9108950F931F93DF9327
:10164000CF93CDB7DEB764970FB6F894DEBF0FBE69
:10165000CDBF8E010F5F1F4FB8014AE050E00E94DE
:101660005614C8010E94A70A64960FB6F894DEBF0C
:101670000FBECDBFCF91DF911F910F9108951F93A2
:10168000182F82958F708A3020F490E00E941D0BF5
:1016900003C0895C0E94870A812F8F708A3020F4F2
:1016A00090E00E941D0B03C0895C0E94870A1F9175
:1016B0000895813029F1813038F0823009F43CC03E
:1016C000833009F06EC053C0413059F42AB381E031
:1016D00090E002C0880F991F6A95E2F7282B2ABB79
:1016E0000895442309F05DC02AB381E090E002C070
:1016F000880F991F6A95E2F7809582238ABB089527
:10170000413059F427B381E090E002C0880F991F5F
:101710006A95E2F7282B27BB0895442309F041C0BE
:1017200027B381E090E002C0880F991F6A95E2F725
:101730008095822387BB0895413059F424B381E01A
:1017400090E002C0880F991F6A95E2F7282B24BB0E
:101750000895442331F524B381E090E002C0880F5E
:10176000991F6A95E2F78095822384BB08954130E2
:1017700059F421B381E090E002C0880F991F6A9567
:10178000E2F7282B21BB0895442359F421B381E0CB
:1017900090E002C0880F991F6A95E2F78095822336
:1017A00081BB0895813091F0813028F08230C9F0FA
:1017B000833061F521C02BB381E090E002C0880F37
:1017C000991F6A95E2F7282B2BBB089528B381E077
:1017D00090E002C0880F991F6A95E2F7282B28BB7A
:1017E000089525B381E090E002C0880F991F6A95A3
:1017F000E2F7282B25BB089522B381E090E002C0D8
:10180000880F991F6A95E2F7282B22BB0895813033
:1018100091F0813028F08230C9F0833061F521C029
:101820002BB381E090E002C0880F991F6A95E2F720
:1018300028272BBB089528B381E090E002C0880FD1
:10184000991F6A95E2F7282728BB089525B381E000
:1018500090E002C0880F991F6A95E2F7282725BB00
:10186000089522B381E090E002C0880F991F6A9525
:10187000E2F7282722BB0895813099F0813028F0C3
:101880008230D9F0833081F524C02BB381E090E021
:1018900002C0880F991F6A95E2F7809582238BBB5F
:1018A000089528B381E090E002C0880F991F6A95DF
:1018B000E2F78095822388BB089525B381E090E00C
:1018C00002C0880F991F6A95E2F78095822385BB35
:1018D000089522B381E090E002C0880F991F6A95B5
:1018E000E2F78095822382BB0895413019F40E946B
:1018F000D20B0895442311F40E943C0C08958130CA
:1019000051F0813030F0823041F0833079F080E066
:10191000089589B303C086B301C083B390E002C0C9
:10192000959587956A95E2F78170089580B390E068
:1019300002C0959587956A95E2F781700895813088
:1019400049F0813028F0823039F0833041F406C00C
:101950006ABB089567BB089564BB089561BB089591
:10196000813049F0813028F0823039F0833041F401
:1019700006C06BBB089568BB089565BB089562BB44
:10198000089588E18AB986E880BD83E389B910BCEF
:1019900008951BB81AB810BC19B810BC089582E09D
:1019A0008BB988E98AB986E880BD80E189B910BC25
:1019B00008955D9BFECF8CB908955F9BFECF8CB1DF
:1019C0000895FC0104C05D9BFECF8CB931968081E7
:1019D0008823C9F7089590939705809396050895F5
:1019E0001F920F920FB60F9211242F933F934F9394
:1019F0005F936F937F938F939F93AF93BF93EF9377
:101A0000FF93E0919605F09197050995FF91EF916D
:101A1000BF91AF919F918F917F916F915F914F9106
:101A20003F912F910F900FBE0F901F9018950F931D
:101A30001F93DF93CF93CDB7DEB764970FB6F894BB
:101A4000DEBF0FBECDBF8E010F5F1F4FB8014AE052
:101A500050E00E945614C8010E94E10C64960FB633
:101A6000F894DEBF0FBECDBFCF91DF911F910F91D4
:101A70000895AE9898B3282F207F9F70292B28BBFC
:101A8000AF9A20E43FE1F9013197F1F7AF9895E083
:101A90009A95F1F798B38295807F9F70982B98BBA9
:101AA000AF9AC9010197F1F7AF98C9010197F1F712
:101AB00008950F931F9387B3806F87BB84B3806CA7
:101AC00084BB88B38F7088BB85B38F7385BB00E4FC
:101AD0001FE1C8010197F1F783E30E94390D82E30A
:101AE0000E94390D88E20E94390D8EE00E94390D66
:101AF00081E00E94390DC8010197F1F786E00E944C
:101B0000390D1F910F910895AE9A98B3282F207F19
:101B10009F70292B28BBAF9A20E43FE1F901319750
:101B2000F1F7AF9895E09A95F1F798B38295807F99
:101B30009F70982B98BBAF9AC9010197F1F7AF98A6
:101B4000C9010197F1F70895CF93DF93EC0103C02A
:101B50000E94840D219688818823D1F7DF91CF914F
:101B6000089581E00E94390D089580E40E94390DA6
:101B70008EE00E94840D8EE00E94840D84E00E941D
:101B8000840D8EE00E94840D85E10E94840D84E026
:101B90000E94840D8AE00E94840D8AE00E94840DD8
:101BA00080E00E94840D80E00E94840D8AE00E9403
:101BB000840D80E00E94840D80E00E94840D81E10C
:101BC0000E94840D8EE00E94840D80E00E94840DAE
:101BD0008EE00E94840D81E10E94840D81E10E94CB
:101BE000840D8FE10E94840D8BE10E94840D8BE1B6
:101BF0000E94840D8FE10E94840D80E00E94840D7C
:101C000080E00E94840D80E00E94840D8AE00E94A2
:101C1000840D85E10E94840D81E10E94840D8EE097
:101C20000E94840D84E00E94840D80E00E94840D57
:101C300080E00E94840D80E00E94840D80E00E947C
:101C4000840D81E00E94840D81E00E94840D81E07A
:101C50000E94840D8FE10E94840D80E00E94840D1B
:101C600080E00E94840D80E00E94840D80E00E944C
:101C7000840D80E00E94840D80E00E94840D8EE03F
:101C80000E94840D81E10E94840D8EE00E94840DEB
:101C900080E00E94840D80E00E94840D80E00E941C
:101CA000840D80E00E94840D8EE00E94840D81E00E
:101CB0000E94840D8FE10E94840D80E00E94840DBB
:101CC00086E00E94840D84E00E94840D8EE00E94D4
:101CD000840D80E00E94840D84E00E94840D84E0E5
:101CE0000E94840D84E00E94840D84E00E94840D93
:101CF0000895882329F4862F80680E94390D08955D
:101D0000813021F4862F806C0E94390D08951F9335
:101D1000CF93DF93EC010E94B10D10E00AC00E9446
:101D2000840D1F5F103121F481E060E00E94790E84
:101D300021968881882399F7DF91CF911F9108958B
:101D40000F931F93CF93DF938C01C7E0D0E0C801BE
:101D50000C2E02C0959587950A94E2F780FF02C089
:101D600081E301C080E30E94840D21978FEFCF3F74
:101D7000D80769F7DF91CF911F910F9108950F93C5
:101D80001F93DF93CF93CDB7DEB764970FB6F89468
:101D9000DEBF0FBECDBF8E010F5F1F4FA8012AE02F
:101DA00030E00E947714C8010E94A40D64960FB61B
:101DB000F894DEBF0FBECDBFCF91DF911F910F9181
:101DC00008950F931F93DF93CF93CDB7DEB764973A
:101DD0000FB6F894DEBF0FBECDBF8E010F5F1F4F51
:101DE000B8014AE050E00E945614C8010E94A40DB8
:101DF00064960FB6F894DEBF0FBECDBFCF91DF91D2
:101E00001F910F9108951F93982F92959F70182FEF
:101E10001F709A3028F4892F90E00E94E10E17C0BD
:101E20009A3011F481E411C09B3011F482E40DC0AA
:101E30009C3011F483E409C09D3011F484E405C0A2
:101E40009E3011F485E401C086E40E94840D1A30AE
:101E500028F4812F90E00E94E10E17C01A3011F48F
:101E600081E411C01B3011F482E40DC01C3011F468
:101E700083E409C01D3011F484E405C01E3011F460
:101E800085E401C086E40E94840D1F9108952FB758
:101E9000F894809188059CB1E82FF0E0E055FA4F66
:101EA00090838F5F80938805843611F410928805A3
:101EB0002FBF0895582FA0EBB5E0282F392FF90137
:101EC00006C09D918191981711F080E008958E2FA2
:101ED000851B8617B0F381E0089585E50E94D90C33
:101EE00085E50E94D90C80E00E94D90C80E00E9418
:101EF000D90C80E00E94D90C80E00E94D90C80E0CF
:101F00000E94D90C8FEF0E94D90C0895CF92DF92D6
:101F1000EF92FF920F931F93CF93DF936C01162FD5
:101F20001F5F0E946D0F812F0E94D90C812F819518
:101F30000E94D90C84ED0E94D90C84EDE82EFF2478
:101F4000C12FD0E021970BC08601080F191FF8019F
:101F500080810E94D90CF8018081E80EF3948F2DC6
:101F600090E08C179D0784F38E2D81950E94D90CEB
:101F700080E00E94D90CDF91CF911F910F91FF90CB
:101F8000EF90DF90CF90089584E6E0EBF5E0DF017D
:101F90001D928A95E9F71092880508951F93CF93B3
:101FA000DF93EC010E94C40F8EE595E064E00E948F
:101FB000860F88EE93E020E931E0F9013197F1F7DF
:101FC0000197D9F720E030E0F901E055FA4FD90147
:101FD000AE59BA4F90818C91981711F010E006C05D
:101FE0002F5F3F4F2E30310579F711E0EEEBF5E032
:101FF000A9E8B5E081918D9385E0EA3CF807D1F737
:10200000188219821A821B82ECE8F5E060E070E029
:10201000208130E040E050E0062E04C0220F331F44
:10202000441F551F0A94D2F788819981AA81BB81E8
:10203000822B932BA42BB52B88839983AA83BB83F4
:102040003197685F7F4F85E0E838F80709F71C8211
:102050001D821E821F82389660E070E0208130E091
:1020600040E050E0062E04C0220F331F441F551FCE
:102070000A94D2F78C819D81AE81BF81822B932BF4
:10208000A42BB52B8C839D83AE83BF833197685F70
:102090007F4F85E0EC38F80709F7188619861A860D
:1020A0001B86389660E070E0208130E040E050E030
:1020B000062E04C0220F331F441F551F0A94D2F767
:1020C00088859985AA85BB85822B932BA42BB52B5C
:1020D00088879987AA87BB873197685F7F4F85E09C
:1020E000E039F80709F7113011F086E001C087E008
:1020F000DF91CF911F910895FB018093730580813B
:102100008093740581818093750582818093760523
:102110008381809377050E94C40F80E795E068E093
:102120000E94860F88EE93E020E931E0F9013197B3
:10213000F1F70197D9F720E030E0F901E055FA4FC7
:10214000D901A858BA4F90818C91981711F086E068
:1021500008952F5F3F4F2031310579F787E00895CB
:10216000DF93CF9300D000D0CDB7DEB76C83272F9D
:10217000382F492F55272B839C01442755272A8325
:10218000692F772788279927698386E0BE016F5FCB
:102190007F4F0E947C100F900F900F900F90CF9167
:1021A000DF910895DF93CF9300D000D0CDB7DEB795
:1021B0006C83272F382F492F55272B839C014427C9
:1021C00055272A83692F772788279927698385E0F0
:1021D000BE016F5F7F4F0E947C100F900F900F9099
:1021E0000F90CF91DF910895DF93CF9300D000D06F
:1021F000CDB7DEB76C83272F382F492F55272B8378
:102200009C01442755272A83692F772788279927F8
:10221000698384E0BE016F5F7F4F0E947C100F9046
:102220000F900F900F90CF91DF910895BC0184E043
:102230000E947C1008950E94C40F8DE495E063E035
:102240000E94860F88EE93E020E931E0F901319792
:10225000F1F70197D9F720E030E0F901E055FA4FA6
:10226000D901A05BBA4F90818C91981711F082E050
:1022700008952F5F3F4F2E30310579F783E00895A1
:102280000E94840A78940E94CF0C87E49FE00E9409
:10229000EB0C0E94C40F8AE395E064E00E94860F75
:1022A00088EE93E020E931E0F9013197F1F70197E9
:1022B000D9F720E030E0F901E055FA4FD901A25CEE
:1022C000BA4F90818C91981711F080E008952F5F9C
:1022D0003F4F2F30310579F781E008952F923F92DB
:1022E0005F926F927F928F929F92AF92BF92CF92A6
:1022F000DF92EF92FF920F931F93CF93DF93C82F3C
:10230000D0E0CC0FDD1F55243B018824992480E9BF
:10231000282E81E0382E43C083E067E00E94070C3E
:10232000C401B3010E94FD035B016C0120E030E0B9
:102330004AE755E40E941F027B018C0120E030E057
:1023400040E85FE30E94790388231CF461E070E0B9
:1023500022C0C801B70120E03FEF4FE757E40E94D9
:1023600019031816A4F4C601B50120E030E040E2DC
:1023700051E40E941F020E94490005C0C10101975B
:10238000F1F76150704061157105C1F707C0C801D0
:10239000B7010E944900CB010197F1F75394852DB5
:1023A00090E08C179D070CF4B7CFDF91CF911F9170
:1023B0000F91FF90EF90DF90CF90BF90AF909F90E4
:1023C0008F907F906F905F903F902F90089583E063
:1023D00067E00E94070C089583E067E00E943C0CD0
:1023E000089583E067E00E94D20B089583E067E0E0
:1023F00041E00E94590B83E067E00E943C0C089585
:102400001F9380E060E040E00E94750C80E061E096
:1024100041E00E94750C80E062E041E00E94750C92
:1024200080E063E041E00E94750C80E064E00E947F
:102430007F0C882389F488E592E020E931E0F901F6
:102440003197F1F70197D9F780E064E00E947F0CA3
:102450008823D1F311E046C080E065E00E947F0C44
:10246000882391F488E592E020E931E0F901319781
:10247000F1F70197D9F71FE180E065E00E947F0C3A
:10248000882381F512E0F8CF80E066E00E947F0C9F
:10249000882391F488E592E020E931E0F901319751
:1024A000F1F70197D9F71FE180E066E00E947F0C09
:1024B0008823C1F413E0F8CF80E067E00E947F0C2E
:1024C000882379F488E592E020E931E0F901319739
:1024D000F1F70197D9F780E067E00E947F0C88232D
:1024E000D1F31FE180E060E041E00E94750C80E0E4
:1024F00061E040E00E94750C80E062E041E00E94F3
:10250000750C80E063E041E00E94750C80E064E0BF
:102510000E947F0C882391F488E592E020E931E065
:10252000F9013197F1F70197D9F780E064E00E9453
:102530007F0C882309F047C014E0F7CF80E065E006
:102540000E947F0C882389F488E592E020E931E03D
:10255000F9013197F1F70197D9F780E065E00E9422
:102560007F0C882381F515E0F8CF80E066E00E94BB
:102570007F0C882389F488E592E020E931E0F901B5
:102580003197F1F70197D9F780E066E00E947F0C60
:102590008823C9F416E0F8CF80E067E00E947F0C42
:1025A000882389F488E592E020E931E0F901319748
:1025B000F1F70197D9F780E067E00E947F0C88234C
:1025C00011F41FE1F8CF80E060E041E00E94750C5B
:1025D00080E061E041E00E94750C80E062E040E054
:1025E0000E94750C80E063E041E00E94750C80E081
:1025F00064E00E947F0C882391F488E592E020E952
:1026000031E0F9013197F1F70197D9F780E064E003
:102610000E947F0C882309F047C017E0F7CF80E0C5
:1026200065E00E947F0C882389F488E592E020E928
:1026300031E0F9013197F1F70197D9F780E065E0D2
:102640000E947F0C882381F518E0F8CF80E066E0D7
:102650000E947F0C882389F488E592E020E931E02C
:10266000F9013197F1F70197D9F780E066E00E9410
:102670007F0C8823C9F419E0F8CF80E067E00E945E
:102680007F0C882389F488E592E020E931E0F901A4
:102690003197F1F70197D9F780E067E00E947F0C4E
:1026A000882311F41FE1F8CF80E060E041E00E9450
:1026B000750C80E061E041E00E94750C80E062E012
:1026C00041E00E94750C80E063E040E00E94750CE0
:1026D00080E064E00E947F0C882391F488E592E01A
:1026E00020E931E0F9013197F1F70197D9F780E05E
:1026F00064E00E947F0C882309F047C014E4F7CF00
:1027000080E065E00E947F0C882389F488E592E0F0
:1027100020E931E0F9013197F1F70197D9F780E02D
:1027200065E00E947F0C882381F510E0F8CF80E0FF
:1027300066E00E947F0C882389F488E592E020E916
:1027400031E0F9013197F1F70197D9F780E066E0C0
:102750000E947F0C8823C9F415E4F8CF80E067E07D
:102760000E947F0C882389F488E592E020E931E01B
:10277000F9013197F1F70197D9F780E067E00E94FE
:102780007F0C882311F41FE1F8CF812F1F9108954A
:1027900080E064E040E00E94590B80E065E040E0AA
:1027A0000E94590B80E066E040E00E94590B80E0F7
:1027B00067E040E00E94590B80E060E041E00E9449
:1027C000590B80E061E041E00E94590B80E062E03B
:1027D00041E00E94590B80E063E041E00E94590B08
:1027E00080E064E00E94D20B80E065E00E94D20BA2
:1027F00080E066E00E94D20B80E067E00E94D20B8E
:10280000089580E0823091F0833028F4882341F0ED
:102810008130C1F708C0833061F0843099F70CC073
:102820000E942507EFCF0E946B06ECCF0E946C0937
:10283000E9CF0E943E08E6CF0E94B707E3CF2F9270
:102840003F924F925F926F927F928F929F92AF9240
:10285000BF92CF92DF92EF92FF920F931F93CF938D
:10286000DF93CDB7DEB7CA1BDB0B0FB6F894DEBF24
:102870000FBECDBF09942A88398848885F846E844A
:102880007D848C849B84AA84B984C884DF80EE8094
:10289000FD800C811B81AA81B981CE0FD11D0FB69D
:1028A000F894DEBF0FBECDBFED010895FB019F017F
:1028B000E8944230C4F04532B4F44A3029F497FB2E
:1028C0001EF4909581959F4F642F77270E94DC140A
:1028D000805D8A330CF0895D8193CB010097A1F76D
:1028E00016F45DE251931082C9010C94AF14FA0101
:1028F000CF93FF93EF932230CCF02532BCF4C22F5C
:102900002C2F332744275527FF93EF930E94F01471
:10291000EF91FF91605D6A330CF0695D6193B901DD
:10292000CA01605070408040904051F710828F91F2
:102930009F91CF910C94AF14A6E1B0E044E050E039
:102940000C94C114242F0E94D014252F0E94D0145F
:102950000C94AA140E94CF14272F0C94D014DC01DD
:10296000FC01672F71917723E1F7329704C07C91C6
:102970006D9370836291AE17BF07C8F30895DC01B1
:10298000CB01FC01E199FECF06C0FFBBEEBBE09A94
:1029900031960DB20D9241505040B8F70895262F50
:1029A000E199FECF9FBB8EBB2DBB0FB6F894E29A88
:1029B000E19A0FBE01960895AA1BBB1B51E107C007
:1029C000AA1FBB1FA617B70710F0A61BB70B881FBF
:1029D000991F5A95A9F780959095BC01CD0108954E
:1029E000A1E21A2EAA1BBB1BFD010DC0AA1FBB1F13
:1029F000EE1FFF1FA217B307E407F50720F0A21B85
:102A0000B30BE40BF50B661F771F881F991F1A94F1
:102A100069F760957095809590959B01AC01BD011B
:082A2000CF010895F894FFCFE7
:102A28000D0A206964656C5F7374617465200D0A12
:102A380000506C65617365205363616E2054616753
:102A4800002054616720206578697374200D0A009E
:102A58000D0A20436F6D70616E7920494420200073
:102A68000D0A205461672049442020000D0A205097
:102A78006F696E7473204E756D62657220002065F3
:102A880072726F722072656164696E672054616743
:102A9800200D0A004572726F722072656164696E5A
:102AA800672000206572726F7220546167204E6F34
:102AB800742056616C6964200D0A004572726F7249
:102AC80020546167204E6F742056616C69640077EA
:102AD800656C636F6D650020696E69745F737461FE
:102AE8007465200D0A00204E4643204E6F74204323
:102AF8006F6E6E6563746564200D0A00506C6561C5
:102B0800736520636F6E6E656374204E46432000C4
:102B1800204E464320436F6E6E6563746564200DD6
:102B28000A000D0A204D616368696E655F706F6900
:102B38006E7473203D2020000D0A20746F74616C40
:102B48005F6C6F61645F706F696E7473203D2020E5
:102B5800000D0A20436F6D70616E795F4944203D16
:102B68002020000D0A004E464320636F6E6E656399
:102B7800746564000D0A204C6F61642043617264BF
:102B8800205374617465200D0A0020446F6E65201F
:102B98006C6F6164696E6720506F696E7473200D85
:102BA8000A00202000446F6E65206C6F6164696EB6
:102BB8006720506F696E7473203D20004572726FF4
:102BC80072206C6F6164696E6720506F696E7473F0
:102BD800004572726F72206C6F6164696E67205075
:102BE8006F696E7473200D0A000D0A206D6173748D
:102BF80065725F636172645F7374617465200D0A46
:102C080000312D506C6179205468652047616D65ED
:102C180020322D53657474696E67730020706C617F
:102C280079207468652067616D65200D0A0020733E
:102C3800657474696E6773200D0A00496E207369A4
:102C4800646520456469742073657474696E67737C
:102C5800200D0A00312D67616D6520706F696E74F3
:102C680073202020322D436F6D70616E79204944A6
:102C7800002043616E63656C6C6564200D0A004337
:102C8800616E63656C6C6564002077726F6E672097
:102C980073656C656374200D0A00506C656173651B
:102CA8002063686F6F736520636F72726563742049
:102CB8006E756D6265720020456469742067616D88
:102CC8006520506F696E7473200D0A00456469743D
:102CD8002067616D6520506F696E7473004E65776B
:102CE8002067616D6520706F696E7473002045649C
:102CF800697420436F6D70616E79204944200D0A14
:102D0800004564697420436F6D70616E7920494491
:102D1800004E657720436F6D70616E7920494400DD
:102D28000D0A20757365725F636172645F73746105
:102D38007465200D0A000D0A204D616368696E658F
:102D48005F706F696E7473203D2020000D0A207437
:102D5800616720506F696E7473203D2020000D0A52
:102D6800204E6F7420656E6F7567682074616720E8
:102D7800706F696E7473200D0A00546167204944AE
:102D8800203A2000506F696E7473203A20004E6F0D
:102D98007420456E6F75676820506F696E74730094
:102DA80020446F6E652077726974652054616720CE
:102DB800506F696E7473200D0A0020202020202097
:102DC80020004572726F722077726974696E67208D
:102DD800506F696E747300206572726F722077721B
:102DE8006974652054616720506F696E7473200D93
:102DF8000A000000000000000000000102020303B6
:102E08000303040404040404040405050505050576
:102E18000505050505050505050506060606060654
:102E2800060606060606060606060606060606063A
:102E38000606060606060606060607070707070724
:102E4800070707070707070707070707070707070A
:102E580007070707070707070707070707070707FA
:102E680007070707070707070707070707070707EA
:102E780007070707070707070707080808080808D4
:102E880008080808080808080808080808080808BA
:102E980008080808080808080808080808080808AA
:102EA800080808080808080808080808080808089A
:102EB800080808080808080808080808080808088A
:102EC800080808080808080808080808080808087A
:102ED800080808080808080808080808080808086A
:102EE800080808080808080808080808080808085A
:102EF8000808080808080808080814011401000050
:102F0800FF00FF000000FF02FED51516004A010071
:102F18000000FF00FF000000FF0FF1D54B0140014A
:102F280030040000FF00FF000000FF13EDD5410052
:102F38004001A200000000000000FF00FF000000A8
:082F4800FF03FDD54100EA0082
:00000001FF
