:100000000C942A000C9447000C9447000C94470071
:100010000C9447000C9447000C9447000C94470044
:100020000C9447000C9447000C9447000C94470034
:100030000C9447000C94590C0C9447000C94470006
:100040000C9447000C9447000C9447000C94470014
:100050000C94470011241FBECFE5D8E0DEBFCDBF12
:1000600014E0A0E6B0E0EAEFF8E202C005900D92DD
:10007000A039B107D9F715E0A0E9B4E001C01D929D
:10008000AC31B107E1F70E946A130C947B140C9415
:100090000000EF92FF920F931F937B018C0120E0F1
:1000A00030E040E05FE40E94490388238CF0C801FF
:1000B000B70120E030E040E05FE40E94C1010E940F
:1000C000A9039B01AC01205030404040504806C07D
:1000D000C801B7010E94A9039B01AC01B901CA0183
:1000E0001F910F91FF90EF900895A0E0B0E0EBE733
:1000F000F0E00C948813DC012B01FA019C91923002
:1001000008F439C1EB018881823008F433C194309E
:1001100069F4843009F02FC111969C91119789815F
:10012000981709F428C1A9E3B3E025C1843009F484
:1001300021C18230A9F4923009F01DC19A01AD01AC
:1001400088E0EA010990AE01E90109929E0181501F
:10015000C1F7E201898111969C918923818308C1AD
:10016000923009F407C112962D903C901397EB0141
:100170008A819B811496AD90BD90CD90DC901797AD
:10018000EC80FD800E811F819101281B390BB90184
:1001900037FF04C066277727621B730B6032710537
:1001A0000CF061C0121613066CF537014801062EDB
:1001B00004C096948794779467940A94D2F721E0C8
:1001C00030E040E050E004C0220F331F441F551FB1
:1001D0006A95D2F721503040404050402E213F21B7
:1001E00040235123211531054105510521F021E01E
:1001F00030E040E050E079018A01E628F72808293C
:1002000019293CC0232BD1F1260E371E350146019A
:10021000062E04C096948794779467940A94D2F734
:1002200021E030E040E050E004C0220F331F441FC3
:10023000551F6A95D2F721503040404050402A2146
:100240003B214C215D21211531054105510521F04E
:1002500021E030E040E050E059016A01A628B728CB
:10026000C828D9280BC0821593052CF01C01AA249C
:10027000BB24650103C0EE24FF24870111969C91E5
:10028000D20111968C91981709F445C0992339F041
:10029000A80197012A193B094C095D0906C0A6016E
:1002A00095012E193F09400B510B57FD08C01182D3
:1002B0003382228224833583468357831DC081E0A5
:1002C00081833382228288279927DC01821B930B4A
:1002D000A40BB50B84839583A683B7830DC0220F2F
:1002E000331F441F551F24833583468357838281E0
:1002F000938101979383828324813581468157813D
:10030000DA01C9010197A109B1098F5F9F4FAF4F72
:10031000BF4328F30BC0918333822282EA0CFB1C7B
:100320000C1D1D1DE482F5820683178383E0808304
:10033000248135814681578157FF1AC0C901AA27F8
:1003400097FDA095BA2F81709070A070B0705695EF
:10035000479537952795822B932BA42BB52B848318
:100360009583A683B7838281938101969383828349
:10037000DF0101C0D201CD01CDB7DEB7E2E10C94BF
:10038000A413A0E2B0E0E7ECF1E00C9494136983CD
:100390007A838B839C832D833E834F835887E9E048
:1003A000EE2EF12CEC0EFD1ECE010196B7010E943F
:1003B0009A058E010F5E1F4FCE010596B8010E946F
:1003C0009A058A8991E089278A8BC701B801AE0115
:1003D000475E5F4F0E9475000E94C504A096E6E04C
:1003E0000C94B013A0E2B0E0E8EFF1E00C949413A9
:1003F00069837A838B839C832D833E834F835887C5
:10040000F9E0EF2EF12CEC0EFD1ECE010196B701A6
:100410000E949A058E010F5E1F4FCE010596B8010E
:100420000E949A05C701B801AE01475E5F4F0E9466
:1004300075000E94C504A096E6E00C94B013A0E2FB
:10044000B0E0E5E2F2E00C94881369837A838B8351
:100450009C832D833E834F835887CE010196BE0136
:10046000675F7F4F0E949A05CE010596BE016F5EC1
:100470007F4F0E949A059985923088F08989823051
:10048000C8F0943019F4823051F404C0843029F457
:10049000923081F489E393E0C6C0923049F420E0C1
:1004A0009A858A89981321E02A87CE010996BBC0D4
:1004B000823049F420E09A858A89981321E02A8BBA
:1004C000CE014196B0C02D843E844F8458886D88FB
:1004D0007E888F88988CEE24FF248701AA24BB2471
:1004E000650140E050E060E070E0E0E0F0E0C10174
:1004F00081709070892BE9F0E60CF71C081D191D1E
:100500009A01AB012A0D3B1D4C1D5D1D80E090E062
:10051000A0E0B0E0E614F7040805190520F481E036
:1005200090E0A0E0B0E0BA01A901480F591F6A1F8E
:100530007B1FAA0CBB1CCC1CDD1C97FE08C081E0F5
:1005400090E0A0E0B0E0A82AB92ACA2ADB2A3196B6
:10055000E032F10549F0660C771C881C991C569412
:10056000479437942794C3CFFA85EA892B893C892D
:100570008B859C85280F391F2E5F3F4F17C0CA01FE
:1005800081709070892B61F016950795F794E79428
:1005900080E090E0A0E0B0E8E82AF92A0A2B1B2BC3
:1005A00076956795579547952F5F3F4F77FDE7CF36
:1005B0000CC0440F551F661F771F17FD4160EE0CDE
:1005C000FF1C001F111F21503040403090E05907A0
:1005D00090E0690790E4790760F32B8F3C8FDB0193
:1005E000CA018F779070A070B07080349105A1051A
:1005F000B10561F447FD0AC0E114F10401051105DC
:1006000029F0405C5F4F6F4F7F4F40781A8EFE1786
:1006100011F081E08A8F4D8F5E8F6F8F78A383E01A
:10062000898FCE0149960E94C504A096E2E10C9400
:10063000A413A8E1B0E0EFE1F3E00C949413698314
:100640007A838B839C832D833E834F83588789E0F5
:10065000E82EF12CEC0EFD1ECE010196B7010E9492
:100660009A058E010F5E1F4FCE010596B8010E94BC
:100670009A058985823040F08989823028F0C70147
:10068000B8010E94120601C08FEF6896E6E00C9454
:10069000B013A8E1B0E0EFE4F3E00C9494136983A5
:1006A0007A838B839C832D833E834F83588789E095
:1006B000E82EF12CEC0EFD1ECE010196B7010E9432
:1006C0009A058E010F5E1F4FCE010596B8010E945C
:1006D0009A058985823040F08989823028F0C701E7
:1006E000B8010E94120601C08FEF6896E6E00C94F4
:1006F000B013A8E1B0E0EFE7F3E00C949413698342
:100700007A838B839C832D833E834F83588789E034
:10071000E82EF12CEC0EFD1ECE010196B7010E94D1
:100720009A058E010F5E1F4FCE010596B8010E94FB
:100730009A058985823040F08989823028F0C70186
:10074000B8010E94120601C081E06896E6E00C94B0
:10075000B013ACE0B0E0EFEAF3E00C9498136983D7
:100760007A838B839C83CE010196BE016B5F7F4FA2
:100770000E949A058D81823061F1823050F184307F
:1007800021F48E81882351F12EC02F81388537FDC9
:1007900020C06E812F3131051CF06623F9F023C093
:1007A0008EE190E0821B930B29853A854B855C8511
:1007B00004C056954795379527958A95D2F76623B5
:1007C000B1F050954095309521953F4F4F4F5F4F79
:1007D0000EC020E030E040E050E009C02FEF3FEFD6
:1007E0004FEF5FE704C020E030E040E050E8B9019F
:1007F000CA012C96E2E00C94B413A8E0B0E0E3E068
:10080000F4E00C9490137B018C0161157105810556
:10081000910519F482E0898360C083E089838EE1C9
:10082000C82ED12CDC82CB82ED82FE820F8318870A
:10083000C801B7010E947604FC013197F7FF3BC065
:10084000222733272E1B3F0B57016801022E04C0BD
:10085000D694C794B794A7940A94D2F740E050E096
:1008600060E070E081E090E0A0E0B0E004C0880FBC
:10087000991FAA1FBB1F2A95D2F70197A109B10999
:100880008E219F21A023B1230097A105B10521F05E
:1008900041E050E060E070E04A295B296C297D2945
:1008A0004D835E836F8378878EE190E08E1B9F0B74
:1008B0009C838B8312C0309781F00E2E04C0EE0C07
:1008C000FF1C001F111F0A94D2F7ED82FE820F83D6
:1008D0001887CE1ADF0ADC82CB821A82CE010196FB
:1008E0000E94C5042896EAE00C94AC13EF92FF92A4
:1008F0000F931F937B018C0180E0E81680E0F806DF
:1009000081E0080780E0180788F48FEFE816F1040B
:100910000105110531F028F088E090E0A0E0B0E09A
:1009200017C080E090E0A0E0B0E012C080E0E816E0
:1009300080E0F80680E0080781E0180728F088E1E9
:1009400090E0A0E0B0E004C080E190E0A0E0B0E082
:1009500020E230E040E050E0281B390B4A0B5B0BF3
:1009600004C016950795F794E7948A95D2F7F70196
:10097000EF5BFC4F8081281B310941095109C901F6
:100980001F910F91FF90EF900895DF92EF92FF92E9
:100990000F931F93FC01E480F58006811781D180BD
:1009A0008081823048F480E090E0A0E1B0E0E82A65
:1009B000F92A0A2B1B2BA5C0843009F49FC0823072
:1009C00021F4EE24FF24870105C0E114F1040105A0
:1009D000110519F4E0E0F0E096C0628173819FEFA9
:1009E000623879070CF05BC022E83FEF261B370B1B
:1009F0002A3131052CF020E030E040E050E02AC000
:100A0000B801A701022E04C07695679557954795C2
:100A10000A94D2F781E090E0A0E0B0E004C0880F33
:100A2000991FAA1FBB1F2A95D2F70197A109B109E7
:100A30008E219F21A023B1230097A105B10521F0AC
:100A400081E090E0A0E0B0E09A01AB01282B392BC7
:100A50004A2B5B2BDA01C9018F779070A070B070C0
:100A600080349105A105B10539F427FF09C0205C48
:100A70003F4F4F4F5F4F04C0215C3F4F4F4F5F4F81
:100A8000E0E0F0E02030A0E03A07A0E04A07A0E470
:100A90005A0710F0E1E0F0E079018A0127C06038E0
:100AA000710564F5FB01E158FF4FD801C7018F774D
:100AB0009070A070B07080349105A105B10539F433
:100AC000E7FE0DC080E490E0A0E0B0E004C08FE35A
:100AD00090E0A0E0B0E0E80EF91E0A1F1B1F17FF10
:100AE00005C016950795F794E794319687E016951B
:100AF0000795F794E7948A95D1F705C0EE24FF2473
:100B00008701EFEFF0E06E2F679566276795902FCE
:100B10009F77D794DD24D7948E2F8695492F462B27
:100B2000582F5D29B701CA011F910F91FF90EF90D7
:100B3000DF900895FC01DB01408151812281622F09
:100B40006F7770E0221F2227221F9381892F880F41
:100B5000822B282F30E0991F9927991F11969C937B
:100B6000119721153105A9F541155105610571054B
:100B700011F482E037C082E89FEF13969C938E9326
:100B800012979A01AB0167E0220F331F441F551FD4
:100B90006A95D1F783E08C930DC0220F331F441F59
:100BA000551F12968D919C911397019713969C93C4
:100BB0008E931297203080E0380780E0480780E469
:100BC000580758F314962D933D934D935C931797C4
:100BD00008952F3F310579F44115510561057105DF
:100BE00019F484E08C93089564FF03C081E08C9332
:100BF00012C01C9210C02F57304013963C932E9376
:100C0000129783E08C9387E0440F551F661F771F70
:100C10008A95D1F7706414964D935D936D937C9390
:100C2000179708951F93DC01FB019C91923008F403
:100C300047C08081823008F443C0943051F411964B
:100C40001C91843099F58181682F70E0611B7109D6
:100C50003FC0843021F0923031F48230B9F181818B
:100C6000882389F12DC011961C9111978230F1F0E3
:100C700081811817D9F412962D913C911397828196
:100C800093818217930794F028173907BCF01496C4
:100C90008D919D910D90BC91A02D2481358146812F
:100CA0005781281739074A075B0718F4112341F0C9
:100CB0000AC082179307A407B50740F4112319F05F
:100CC00061E070E005C06FEF7FEF02C060E070E0B0
:100CD000CB011F9108951F93CF93DF9380E690E09F
:100CE0000E94100A81E790E00E94F00DC0E9D1E077
:100CF0000E94841020EA3FE0FE013197F1F7215075
:100D00003040D1F78330A1F781E890E00E94100ACB
:100D100088EA94E00E94370F182F2091A8043091A0
:100D2000A9044091AA045091AB048091A004909131
:100D3000A104A091A204B091A304281739074A077F
:100D40005B07F1F08091AC049091AD04A091AE04EA
:100D5000B091AF048F3F2FEF92072FEFA2072FEF35
:100D6000B20771F08D3D2DED92072DEDA2072DED0F
:100D7000B20731F08E5E9E4EAE4EBE4E09F014E0CC
:100D800080E990E00E94100A6091A8047091A90483
:100D90008091AA049091AB040E94640A80EA90E0DA
:100DA0000E94100A6091AC047091AD048091AE0471
:100DB0009091AF040E94640A8CEA90E00E94100AAD
:100DC0006091B0047091B1048091B2049091B30429
:100DD0000E94640A163009F43FC0173021F0143025
:100DE00009F05DC04BC08091AC049091AD04A0911E
:100DF000AE04B091AF048F3F2FEF92072FEFA20701
:100E00002FEFB207B1F410E0C0E9D1E00E94501119
:100E10008EEB90E00E94F00D80E197E2FE013197A9
:100E2000F1F70197D9F71F5F123081F70E94551132
:100E300036C08D3D2DED92072DEDA2072DEDB207A9
:100E400011F483E02DC08E5E9E4EAE4EBE4E11F06C
:100E500082E026C084E024C08AEC90E00E94100A60
:100E600080EE90E00E94F00D80E29EE420E931E007
:100E7000F9013197F1F70197D9F711C08FEE90E0A2
:100E80000E94100A87E091E00E94F00D80E29EE44B
:100E900020E931E0F9013197F1F70197D9F781E0C5
:100EA000DF91CF911F9108950F931F930E943113EB
:100EB0000E945F110E94C20C8BE191E00E940D0D17
:100EC0000E94A910082F83E291E00E94100A0023DB
:100ED00091F482E391E00E94100A88E491E00E947C
:100EE000F00D80E29EE420E931E0F9013197F1F75D
:100EF0000197D9F767C0013009F064C08CE591E033
:100F00000E94100A81E090E00E9405146093A404FE
:100F10007093A5048093A6049093A70400E41CE9B1
:100F2000C8010197F1F784E090E00E9405146093F6
:100F3000B4047093B5048093B6049093B704C801C9
:100F40000197F1F788E090E00E9405146093A004F7
:100F50007093A1048093A2049093A304C801019705
:100F6000F1F78EE691E00E94100A8091A40490911E
:100F7000A5040E94860A84E891E00E94100A8091EC
:100F8000B4049091B5040E94860A8DE991E00E9414
:100F9000100A8091A0049091A1040E94860A8FEA11
:100FA00091E00E94100A82EB91E00E94F00D80E235
:100FB0009EE420E931E0F9013197F1F70197D9F783
:100FC00081E001C080E01F910F91089580EC91E0D5
:100FD0000E94100A6091B4047091B5048091B60427
:100FE0009091B7042091B0043091B1044091B204C3
:100FF0005091B304620F731F841F951F6093B00458
:101000007093B1048093B2049093B3040E941910BA
:10101000873009F03BC086ED91E00E94100A809174
:10102000B4049091B5040E94860A8EEE91E00E946D
:10103000100A8091B0049091B1040E94860A81EF59
:1010400091E00E94F00D8091B4049091B5040E944B
:101050004A0E8EEE91E00E940D0D8091B0049091A9
:10106000B1040E944A0E80E29EE420E931E0F901D9
:101070003197F1F70197D9F780E29EE420E931E05A
:10108000F9013197F1F70197D9F711C088E092E0A3
:101090000E94F00D80E29EE420E931E0F9013197F1
:1010A000F1F70197D9F78DE192E00E94100A1092B2
:1010B000B4041092B5041092B6041092B70484E000
:1010C00090E040E050E060E070E00E940B1480E4AB
:1010D0009CE90197F1F781E008950F931F9385E351
:1010E00092E00E94100A4091B0045091B10460E077
:1010F00070E04093A4045093A5046093A6047093F9
:10110000A70481E090E00E940B1400E41CE9C801F0
:101110000197F1F74091A8045091A90460E070E0B4
:101120004093A0045093A1046093A2047093A3047D
:1011300088E090E00E940B14C8010197F1F78DE45C
:1011400092E00E94F00D81E060E00E94E20D80914B
:10115000A4049091A5040E944A0E80E29EE420E936
:1011600031E0F9013197F1F70197D9F70E941A0D93
:101170008CE592E00E94F00D81E060E00E94E20DBB
:101180008091A0049091A1040E944A0E80E29EE406
:1011900020E931E0F9013197F1F70197D9F70E9481
:1011A0001A0D81E01F910F9108951F93CF93DF9344
:1011B00087E692E00E94100A2091B0043091B104B9
:1011C0008091A4049091A5042817390708F05BC00A
:1011D0008DE792E00E94100A8091A4049091A504EA
:1011E0000E94860A83E992E00E94100A8091B0046E
:1011F0009091B1040E94860A85EA92E00E94100A4A
:101200000E941A0D80E060E00E94E20D81EC92E005
:101210000E940D0D8091AC049091AD040E944A0E85
:1012200080E06EE00E94E20D8091A4049091A504FC
:101230000E944A0E81E060E00E94E20D8BEC92E099
:101240000E940D0D8091B0049091B1040E944A0E4D
:1012500080E197E220E931E0F9013197F1F7019758
:10126000D9F70E941A0D85ED92E00E940D0D0E94A3
:101270005A1180E29EE420E931E0F9013197F1F75B
:101280000197D9F791C00E941A0D80E060E00E949A
:10129000E20D81EC92E00E940D0D8091AC049091E2
:1012A000AD040E944A0E80E06EE00E94E20D809143
:1012B000A4049091A5040E944A0E81E060E00E947F
:1012C000E20D8BEC92E00E940D0D8091B0049091A4
:1012D000B1040E944A0E6091B0047091B104209153
:1012E000A4043091A504621B730B80E090E060932E
:1012F000B0047093B1048093B2049093B3040E943D
:101300001910873009F053C087EE92E00E94100A4E
:101310004091A4045091A5046091A6047091A70483
:101320008091B4049091B504A091B604B091B70433
:10133000480F591F6A1F7B1F4093B4045093B50494
:101340006093B6047093B70484E090E00E940B149D
:1013500080E49CE90197F1F710E0C0E9D1E00E9438
:10136000501181E069E00E94E20D81E093E00E946B
:101370000D0D80EA9FE0FE013197F1F70197D9F753
:1013800081E069E00E94E20D8091B0049091B10487
:101390000E944A0E80EA9FE0FE013197F1F7019723
:1013A000D9F71F5F1430D9F60E94551111C089E09A
:1013B00093E00E94F00D80E29EE420E931E0F90123
:1013C0003197F1F70197D9F78EE193E00E94100A67
:1013D00081E0DF91CF911F9108958E9A969A08959A
:1013E000582F969880E493E00197F1F741E020E0D0
:1013F00030E060E473E0842F852311F0969A01C0F9
:101400009698CB010197F1F7440F2F5F3F4F28309B
:10141000310589F7969A80E493E00197F1F70895F2
:101420001F93CF93DF93EC0110E003C00E94F009FB
:101430001F5FFE01E10FF11D80818823B9F7DF9165
:10144000CF911F910895CF93DF93EC01FC0184911C
:1014500005C021960E94F009FE0184918823C9F7F6
:10146000DF91CF9108958A3010F0895A01C0805DD4
:101470000E94F00908951F93182F82958F700E9483
:10148000330A812F8F700E94330A1F9108951F9392
:10149000182F892F0E943B0A812F0E943B0A1F911F
:1014A0000895EF92FF920F931F937B018C01C80167
:1014B000AA27BB270E94470AC7010E94470A1F911B
:1014C0000F91FF90EF9008950F931F93DF93CF93A9
:1014D000CDB7DEB764970FB6F894DEBF0FBECDBFB1
:1014E0008E010F5F1F4FA8012AE030E00E94E01339
:1014F000C8010E94100A64960FB6F894DEBF0FBEB2
:10150000CDBFCF91DF911F910F9108950F931F933E
:10151000DF93CF93CDB7DEB764970FB6F894DEBFF5
:101520000FBECDBF8E010F5F1F4FB8014AE050E0E4
:101530000E94BF13C8010E94100A64960FB6F89467
:10154000DEBF0FBECDBFCF91DF911F910F910895E8
:101550001F93182F82958F708A3020F490E00E949C
:10156000860A03C0895C0E94F009812F8F708A303F
:1015700020F490E00E94860A03C0895C0E94F00972
:101580001F910895813029F1813038F0823009F4BB
:101590003CC0833009F06EC053C0413059F42AB3C7
:1015A00081E090E002C0880F991F6A95E2F7282B2E
:1015B0002ABB0895442309F05DC02AB381E090E07E
:1015C00002C0880F991F6A95E2F7809582238ABB33
:1015D0000895413059F427B381E090E002C0880FAC
:1015E000991F6A95E2F7282B27BB0895442309F039
:1015F00041C027B381E090E002C0880F991F6A952F
:10160000E2F78095822387BB0895413059F424B3D3
:1016100081E090E002C0880F991F6A95E2F7282BBD
:1016200024BB0895442331F524B381E090E002C047
:10163000880F991F6A95E2F78095822384BB0895ED
:10164000413059F421B381E090E002C0880F991F26
:101650006A95E2F7282B21BB0895442359F421B35E
:1016600081E090E002C0880F991F6A95E2F78095AB
:10167000822381BB0895813091F0813028F082303F
:10168000C9F0833061F521C02BB381E090E002C046
:10169000880F991F6A95E2F7282B2BBB089528B372
:1016A00081E090E002C0880F991F6A95E2F7282B2D
:1016B00028BB089525B381E090E002C0880F991FF0
:1016C0006A95E2F7282B25BB089522B381E090E0CC
:1016D00002C0880F991F6A95E2F7282B22BB089554
:1016E000813091F0813028F08230C9F0833061F58B
:1016F00021C02BB381E090E002C0880F991F6A954A
:10170000E2F728272BBB089528B381E090E002C0C0
:10171000880F991F6A95E2F7282728BB089525B3FB
:1017200081E090E002C0880F991F6A95E2F72827B0
:1017300025BB089522B381E090E002C0880F991F75
:101740006A95E2F7282722BB0895813099F081300D
:1017500028F08230D9F0833081F524C02BB381E0AA
:1017600090E002C0880F991F6A95E2F78095822366
:101770008BBB089528B381E090E002C0880F991FC9
:101780006A95E2F78095822388BB089525B381E0AE
:1017900090E002C0880F991F6A95E2F78095822336
:1017A00085BB089522B381E090E002C0880F991FA5
:1017B0006A95E2F78095822382BB0895413019F43F
:1017C0000E943B0B0895442311F40E94A50B089539
:1017D000813051F0813030F0823041F0833079F047
:1017E00080E0089589B303C086B301C083B390E05D
:1017F00002C0959587956A95E2F78170089580B348
:1018000090E002C0959587956A95E2F781700895FA
:10181000813049F0813028F0823039F0833041F452
:1018200006C06ABB089567BB089564BB089561BB99
:101830000895813049F0813028F0823039F08330CA
:1018400041F406C06BBB089568BB089565BB08955D
:1018500062BB089588E18AB986E880BD83E389B9CF
:1018600010BC08951BB81AB810BC19B810BC089564
:1018700082E08BB988E98AB986E880BD80E189B9C0
:1018800010BC08955D9BFECF8CB908955F9BFECF81
:101890008CB10895FC0104C05D9BFECF8CB93196DC
:1018A00080818823C9F7089590939F0480939E04B4
:1018B00008951F920F920FB60F9211242F933F930A
:1018C0004F935F936F937F938F939F93AF93BF9348
:1018D000EF93FF93E0919E04F0919F040995FF918F
:1018E000EF91BF91AF919F918F917F916F915F9198
:1018F0004F913F912F910F900FBE0F901F90189511
:101900000F931F93DF93CF93CDB7DEB764970FB6D6
:10191000F894DEBF0FBECDBF8E010F5F1F4FB80121
:101920004AE050E00E94BF13C8010E944A0C64962E
:101930000FB6F894DEBF0FBECDBFCF91DF911F91E0
:101940000F910895AE9898B3282F207F9F70292B70
:1019500028BBAF9A20E43FE1F9013197F1F7AF9846
:1019600095E09A95F1F798B38295807F9F70982BB8
:1019700098BBAF9AC9010197F1F7AF98C9010197D8
:10198000F1F708950F931F9387B3806F87BB84B3DC
:10199000806C84BB88B38F7088BB85B38F7385BB25
:1019A00000E41FE1C8010197F1F783E30E94A20C54
:1019B00082E30E94A20C88E20E94A20C8EE00E94A8
:1019C000A20C81E00E94A20CC8010197F1F786E009
:1019D0000E94A20C1F910F910895AE9A98B3282FE0
:1019E000207F9F70292B28BBAF9A20E43FE1F901AB
:1019F0003197F1F7AF9895E09A95F1F798B3829502
:101A0000807F9F70982B98BBAF9AC9010197F1F71F
:101A1000AF98C9010197F1F70895CF93DF93EC01D7
:101A200003C00E94ED0C219688818823D1F7DF91B5
:101A3000CF91089581E00E94A20C089580E40E9455
:101A4000A20C8EE00E94ED0C8EE00E94ED0C84E072
:101A50000E94ED0C8EE00E94ED0C85E10E94ED0CE1
:101A600084E00E94ED0C8AE00E94ED0C8AE00E9466
:101A7000ED0C80E00E94ED0C80E00E94ED0C8AE00D
:101A80000E94ED0C80E00E94ED0C80E00E94ED0CC5
:101A900081E10E94ED0C8EE00E94ED0C80E00E943E
:101AA000ED0C8EE00E94ED0C81E10E94ED0C81E1D5
:101AB0000E94ED0C8FE10E94ED0C8BE10E94ED0C79
:101AC0008BE10E94ED0C8FE10E94ED0C80E00E9402
:101AD000ED0C80E00E94ED0C80E00E94ED0C8AE0AD
:101AE0000E94ED0C85E10E94ED0C81E10E94ED0C5D
:101AF0008EE00E94ED0C84E00E94ED0C80E00E94DC
:101B0000ED0C80E00E94ED0C80E00E94ED0C80E086
:101B10000E94ED0C81E00E94ED0C81E00E94ED0C32
:101B200081E00E94ED0C8FE10E94ED0C80E00E94AC
:101B3000ED0C80E00E94ED0C80E00E94ED0C80E056
:101B40000E94ED0C80E00E94ED0C80E00E94ED0C04
:101B50008EE00E94ED0C81E10E94ED0C8EE00E946F
:101B6000ED0C80E00E94ED0C80E00E94ED0C80E026
:101B70000E94ED0C80E00E94ED0C8EE00E94ED0CC6
:101B800081E00E94ED0C8FE10E94ED0C80E00E944C
:101B9000ED0C86E00E94ED0C84E00E94ED0C8EE0DE
:101BA0000E94ED0C80E00E94ED0C84E00E94ED0CA0
:101BB00084E00E94ED0C84E00E94ED0C84E00E9421
:101BC000ED0C0895882329F4862F80680E94A20CCA
:101BD0000895813021F4862F806C0E94A20C089514
:101BE0001F93CF93DF93EC010E941A0D10E00AC0FF
:101BF0000E94ED0C1F5F103121F481E060E00E9433
:101C0000E20D21968881882399F7DF91CF911F916A
:101C100008950F931F93CF93DF938C01C7E0D0E01B
:101C2000C8010C2E02C0959587950A94E2F780FFB3
:101C300002C081E301C080E30E94ED0C21978FEF89
:101C4000CF3FD80769F7DF91CF911F910F9108958A
:101C50000F931F93DF93CF93CDB7DEB764970FB683
:101C6000F894DEBF0FBECDBF8E010F5F1F4FA801DE
:101C70002AE030E00E94E013C8010E940D0D649636
:101C80000FB6F894DEBF0FBECDBFCF91DF911F918D
:101C90000F9108950F931F93DF93CF93CDB7DEB7C6
:101CA00064970FB6F894DEBF0FBECDBF8E010F5FF5
:101CB0001F4FB8014AE050E00E94BF13C8010E94C4
:101CC0000D0D64960FB6F894DEBF0FBECDBFCF9159
:101CD000DF911F910F9108951F93982F92959F70F8
:101CE000182F1F709A3028F4892F90E00E944A0E16
:101CF00017C09A3011F481E411C09B3011F482E4D2
:101D00000DC09C3011F483E409C09D3011F484E4CB
:101D100005C09E3011F485E401C086E40E94ED0CFC
:101D20001A3028F4812F90E00E944A0E17C01A3012
:101D300011F481E411C01B3011F482E40DC01C3099
:101D400011F483E409C01D3011F484E405C01E3091
:101D500011F485E401C086E40E94ED0C1F91089502
:101D60002FB7F894809190049CB1E82FF0E0E854EC
:101D7000FB4F90838F5F80939004843611F4109210
:101D800090042FBF0895582FA8EBB4E0282F392FC7
:101D9000F90106C09D918191981711F080E0089596
:101DA0008E2F851B8617B0F381E0089585E50E948C
:101DB000420C85E50E94420C80E00E94420C80E0CB
:101DC0000E94420C80E00E94420C80E00E94420C83
:101DD00080E00E94420C8FEF0E94420C0895CF9247
:101DE000DF92EF92FF920F931F93CF93DF936C01DB
:101DF000162F1F5F0E94D60E812F0E94420C812F4A
:101E000081950E94420C84ED0E94420C84EDE82EE4
:101E1000FF24C12FD0E021970BC08601080F191FA6
:101E2000F80180810E94420CF8018081E80EF39451
:101E30008F2D90E08C179D0784F38E2D81950E9445
:101E4000420C80E00E94420CDF91CF911F910F91D4
:101E5000FF90EF90DF90CF90089584E6E8EBF4E0F8
:101E6000DF011D928A95E9F71092900408951F935F
:101E7000CF93DF93EC010E942D0F85E694E064E0A0
:101E80000E94EF0E88EE93E020E931E0F9013197EE
:101E9000F1F70197D9F720E030E0F901E854FB4F62
:101EA000D901A759BB4F90818C91981711F010E080
:101EB00006C02F5F3F4F2E30310579F711E0E6EC79
:101EC000F4E0A1E9B4E081918D9384E0E23DF8076C
:101ED000D1F7188219821A821B82E4E9F4E060E0EB
:101EE00070E0208130E040E050E0062E04C0220F78
:101EF000331F441F551F0A94D2F788819981AA8104
:101F0000BB81822B932BA42BB52B88839983AA8327
:101F1000BB833197685F7F4F84E0E039F80709F7AA
:101F20001C821D821E821F82389660E070E0208134
:101F300030E040E050E0062E04C0220F331F441F63
:101F4000551F0A94D2F78C819D81AE81BF81822B6F
:101F5000932BA42BB52B8C839D83AE83BF833197AA
:101F6000685F7F4F84E0E439F80709F7188619861F
:101F70001A861B86389660E070E0208130E040E0F1
:101F800050E0062E04C0220F331F441F551F0A9431
:101F9000D2F788859985AA85BB85822B932BA42BA4
:101FA000B52B88879987AA87BB873197685F7F4F52
:101FB00084E0E839F80709F7113011F086E001C034
:101FC00087E0DF91CF911F910895FB0180937A0400
:101FD000808180937B04818180937C0482818093C3
:101FE0007D04838180937E040E942D0F87E794E017
:101FF00068E00E94EF0E88EE93E020E931E0F901FD
:102000003197F1F70197D9F720E030E0F901E85472
:10201000FB4FD901A158BB4F90818C91981711F0BB
:1020200086E008952F5F3F4F2031310579F787E033
:102030000895DF93CF9300D000D0CDB7DEB76C8387
:10204000272F382F492F55272B839C0144275527AD
:102050002A83692F772788279927698386E0BE011D
:102060006F5F7F4F0E94E50F0F900F900F900F90C2
:10207000CF91DF910895DF93CF9300D000D0CDB7FB
:10208000DEB76C83272F382F492F55272B839C01D0
:10209000442755272A83692F77278827992769831B
:1020A00085E0BE016F5F7F4F0E94E50F0F900F909C
:1020B0000F900F90CF91DF910895DF93CF9300D0D1
:1020C00000D0CDB7DEB76C83272F382F492F552787
:1020D0002B839C01442755272A83692F772788273C
:1020E0009927698384E0BE016F5F7F4F0E94E50FEF
:1020F0000F900F900F900F90CF91DF910895BC013A
:1021000084E00E94E50F08950E942D0F84E594E07D
:1021100063E00E94EF0E88EE93E020E931E0F901E0
:102120003197F1F70197D9F720E030E0F901E85451
:10213000FB4FD901A95ABB4F90818C91981711F090
:1021400082E008952F5F3F4F2E30310579F783E00D
:1021500008950E94ED0978940E94380C80EB9EE06F
:102160000E94540C0E942D0F81E494E064E00E94D0
:10217000EF0E88EE93E020E931E0F9013197F1F7B5
:102180000197D9F720E030E0F901E854FB4FD9017D
:10219000AB5BBB4F90818C91981711F080E0089554
:1021A0002F5F3F4F2F30310579F781E008952F924F
:1021B0003F925F926F927F928F929F92AF92BF9267
:1021C000CF92DF92EF92FF920F931F93CF93DF9303
:1021D000C82FD0E0CC0FDD1F55243B018824992463
:1021E00080E9282E81E0382E43C083E067E00E941A
:1021F000700BC401B3010E94FD035B016C0120E080
:1022000030E04AE755E40E941F027B018C0120E088
:1022100030E040E85FE30E94790388231CF461E02A
:1022200070E022C0C801B70120E03FEF4FE757E45C
:102230000E9419031816A4F4C601B50120E030E08D
:1022400040E251E40E941F020E94490005C0C10102
:102250000197F1F76150704061157105C1F707C032
:10226000C801B7010E944900CB010197F1F75394CF
:10227000852D90E08C179D070CF4B7CFDF91CF919F
:102280001F910F91FF90EF90DF90CF90BF90AF9094
:102290009F908F907F906F905F903F902F900895C8
:1022A00083E067E00E94700B089583E067E00E947E
:1022B000A50B089583E067E00E943B0B089583E03F
:1022C00067E041E00E94C20A83E067E00E94A50B3C
:1022D00008951F9380E060E040E00E94DE0B80E004
:1022E00061E041E00E94DE0B80E062E041E00E949C
:1022F000DE0B80E063E041E00E94DE0B80E064E002
:102300000E94E80B882389F488E592E020E931E017
:10231000F9013197F1F70197D9F780E064E00E9465
:10232000E80B8823D1F311E046C080E065E00E940D
:10233000E80B882391F488E592E020E931E0F90187
:102340003197F1F70197D9F71FE180E065E00E942E
:10235000E80B882381F512E0F8CF80E066E00E9468
:10236000E80B882391F488E592E020E931E0F90157
:102370003197F1F70197D9F71FE180E066E00E94FD
:10238000E80B8823C1F413E0F8CF80E067E00E94F7
:10239000E80B882379F488E592E020E931E0F9013F
:1023A0003197F1F70197D9F780E067E00E94E80BD9
:1023B0008823D1F31FE180E060E041E00E94DE0B62
:1023C00080E061E040E00E94DE0B80E062E041E0FE
:1023D0000E94DE0B80E063E041E00E94DE0B80E0C3
:1023E00064E00E94E80B882391F488E592E020E9FC
:1023F00031E0F9013197F1F70197D9F780E064E016
:102400000E94E80B882309F047C014E0F7CF80E072
:1024100065E00E94E80B882389F488E592E020E9D2
:1024200031E0F9013197F1F70197D9F780E065E0E4
:102430000E94E80B882381F515E0F8CF80E066E084
:102440000E94E80B882389F488E592E020E931E0D6
:10245000F9013197F1F70197D9F780E066E00E9422
:10246000E80B8823C9F416E0F8CF80E067E00E940B
:10247000E80B882389F488E592E020E931E0F9014E
:102480003197F1F70197D9F780E067E00E94E80BF8
:10249000882311F41FE1F8CF80E060E041E00E9462
:1024A000DE0B80E061E041E00E94DE0B80E062E054
:1024B00040E00E94DE0B80E063E041E00E94DE0B22
:1024C00080E064E00E94E80B882391F488E592E0C4
:1024D00020E931E0F9013197F1F70197D9F780E070
:1024E00064E00E94E80B882309F047C017E0F7CFAB
:1024F00080E065E00E94E80B882389F488E592E09B
:1025000020E931E0F9013197F1F70197D9F780E03F
:1025100065E00E94E80B882381F518E0F8CF80E0A1
:1025200066E00E94E80B882389F488E592E020E9C0
:1025300031E0F9013197F1F70197D9F780E066E0D2
:102540000E94E80B8823C9F419E0F8CF80E067E027
:102550000E94E80B882389F488E592E020E931E0C5
:10256000F9013197F1F70197D9F780E067E00E9410
:10257000E80B882311F41FE1F8CF80E060E041E030
:102580000E94DE0B80E061E041E00E94DE0B80E013
:1025900062E041E00E94DE0B80E063E040E00E94E8
:1025A000DE0B80E064E00E94E80B882391F488E56C
:1025B00092E020E931E0F9013197F1F70197D9F77D
:1025C00080E064E00E94E80B882309F047C014E42F
:1025D000F7CF80E065E00E94E80B882389F488E566
:1025E00092E020E931E0F9013197F1F70197D9F74D
:1025F00080E065E00E94E80B882381F510E0F8CFC9
:1026000080E066E00E94E80B882389F488E592E088
:1026100020E931E0F9013197F1F70197D9F780E02E
:1026200066E00E94E80B8823C9F415E4F8CF80E047
:1026300067E00E94E80B882389F488E592E020E9AE
:1026400031E0F9013197F1F70197D9F780E067E0C0
:102650000E94E80B882311F41FE1F8CF812F1F910E
:10266000089580E064E040E00E94C20A80E065E0F6
:1026700040E00E94C20A80E066E040E00E94C20A98
:1026800080E067E040E00E94C20A80E060E041E054
:102690000E94C20A80E061E041E00E94C20A80E03C
:1026A00062E041E00E94C20A80E063E041E00E94F3
:1026B000C20A80E064E00E943B0B80E065E00E947B
:1026C0003B0B80E066E00E943B0B80E067E00E94ED
:1026D0003B0B089580E0823091F0833028F488230A
:1026E00041F08130C1F708C0833061F0843099F740
:1026F0000CC00E945407EFCF0E946B06ECCF0E94E3
:10270000D508E9CF0E946D08E6CF0E94E607E3CF27
:102710002F923F924F925F926F927F928F929F92F1
:10272000AF92BF92CF92DF92EF92FF920F931F93DF
:10273000CF93DF93CDB7DEB7CA1BDB0B0FB6F89490
:10274000DEBF0FBECDBF09942A88398848885F84D0
:102750006E847D848C849B84AA84B984C884DF8041
:10276000EE80FD800C811B81AA81B981CE0FD11D25
:102770000FB6F894DEBF0FBECDBFED010895FB018B
:102780009F01E8944230C4F04532B4F44A3029F451
:1027900097FB1EF4909581959F4F642F77270E9499
:1027A0004514805D8A330CF0895D8193CB010097DD
:1027B000A1F716F45DE251931082C9010C9418142C
:1027C000FA01CF93FF93EF932230CCF02532BCF483
:1027D000C22F2C2F332744275527FF93EF930E94B6
:1027E0005914EF91FF91605D6A330CF0695D61935C
:1027F000B901CA01605070408040904051F710828A
:102800008F919F91CF910C941814A6E1B0E044E011
:1028100050E00C942A14242F0E943914252F0E9472
:1028200039140C9413140E943814272F0C94391463
:10283000DC01FC01672F71917723E1F7329704C027
:102840007C916D9370836291AE17BF07C8F30895B2
:10285000DC01CB01FC01E199FECF06C0FFBBEEBB62
:10286000E09A31960DB20D9241505040B8F708955C
:10287000262FE199FECF9FBB8EBB2DBB0FB6F894E0
:10288000E29AE19A0FBE01960895AA1BBB1B51E183
:1028900007C0AA1FBB1FA617B70710F0A61BB70BD0
:1028A000881F991F5A95A9F780959095BC01CD0175
:1028B0000895A1E21A2EAA1BBB1BFD010DC0AA1F81
:1028C000BB1FEE1FFF1FA217B307E407F50720F099
:1028D000A21BB30BE40BF50B661F771F881F991F14
:1028E0001A9469F760957095809590959B01AC015D
:0A28F000BD01CF010895F894FFCF59
:1028FA000D0A206964656C5F7374617465200D0A42
:10290A0000506C65617365205363616E2054616782
:10291A00002054616720206578697374200D0A00CD
:10292A000D0A20436F6D70616E79204944202000A2
:10293A000D0A205461672049442020000D0A2050C6
:10294A006F696E7473204E756D62657220004D61F9
:10295A0073746572204361726400206572726F72CB
:10296A002072656164696E6720546167200D0A00F0
:10297A004572726F722072656164696E6720002009
:10298A006572726F7220546167204E6F74205661AF
:10299A006C6964200D0A004572726F722054616777
:1029AA00204E6F742056616C69640077656C636FA2
:1029BA006D650020696E69745F7374617465200DBA
:1029CA000A00204E4643204E6F7420436F6E6E6598
:1029DA0063746564200D0A00506C65617365206339
:1029EA006F6E6E656374204E46432000204E464348
:1029FA0020436F6E6E6563746564200D0A000D0ACC
:102A0A00204D616368696E655F706F696E747320CB
:102A1A003D2020000D0A20746F74616C5F6C6F6139
:102A2A00645F706F696E7473203D2020000D0A2068
:102A3A00436F6D70616E795F4944203D2020000D1F
:102A4A000A004E464320636F6E6E656374656400C8
:102A5A000D0A204C6F6164204361726420537461D3
:102A6A007465200D0A0020446F6E65206C6F6164E6
:102A7A00696E6720506F696E7473200D0A002020FA
:102A8A0000446F6E65206C6F6164696E6720506FD9
:102A9A00696E7473203D20004572726F72206C6FEC
:102AAA006164696E6720506F696E74730045727253
:102ABA006F72206C6F6164696E6720506F696E7403
:102ACA0073200D0A000D0A206D61737465725F63CD
:102ADA006172645F7374617465200D0A006D6163CD
:102AEA0068696E6520706F696E747300436F6D70EC
:102AFA00616E79204944000D0A20757365725F631F
:102B0A006172645F7374617465200D0A000D0A2096
:102B1A004D616368696E655F706F696E7473203D9D
:102B2A002020000D0A2074616720506F696E74734B
:102B3A00203D2020000D0A204E6F7420656E6F75AF
:102B4A0067682074616720706F696E7473200D0A5C
:102B5A0000546167204944203A2000506F696E741E
:102B6A0073203A20004E6F7420456E6F7567682097
:102B7A00506F696E74730020446F6E6520777269B6
:102B8A0074652054616720506F696E7473200D0A52
:102B9A000020202020202020004572726F722077AA
:102BAA00726974696E6720506F696E74730020656C
:102BBA0072726F722077726974652054616720504F
:102BCA006F696E7473200D0A000000000000000097
:102BDA0000000102020303030304040404040404BE
:102BEA00040505050505050505050505050505058C
:102BFA00050606060606060606060606060606066C
:102C0A00060606060606060606060606060606065A
:102C1A00060707070707070707070707070707073B
:102C2A00070707070707070707070707070707072A
:102C3A00070707070707070707070707070707071A
:102C4A00070707070707070707070707070707070A
:102C5A0007080808080808080808080808080808EB
:102C6A0008080808080808080808080808080808DA
:102C7A0008080808080808080808080808080808CA
:102C8A0008080808080808080808080808080808BA
:102C9A0008080808080808080808080808080808AA
:102CAA00080808080808080808080808080808089A
:102CBA00080808080808080808080808080808088A
:102CCA00080808080808080808080808080808087A
:102CDA0008140114010000FF00FF000000FF02FEBB
:102CEA00D51516004A01000000FF00FF000000FF92
:102CFA000FF1D54B01400130040000FF00FF000036
:102D0A0000FF13EDD541004001A2000000000000C1
:102D1A0000FF00FF000000FF03FDD54100EA0000AC
:00000001FF
