:100000000C942A000C9447000C9447000C94470071
:100010000C9447000C9447000C9447000C94470044
:100020000C9447000C9447000C9447000C94470034
:100030000C9447000C943E040C9447000C94470029
:100040000C9447000C9447000C9447000C94470014
:100050000C94470011241FBECFE5D8E0DEBFCDBF12
:1000600013E0A0E6B0E0E0E3F3E102C005900D92FA
:10007000A437B107D9F714E0A4E7B3E001C01D929B
:10008000A030B107E1F70E94BC080C9496090C94CB
:100090000000CF93DF9380E690E00E945D038FE63F
:1000A00090E00E94D505C0E9D1E00E94690820EAED
:1000B0003FE0FE013197F1F721503040D1F7833016
:1000C000A1F78FE790E00E945D038CE893E00E9427
:1000D0001C07682F20918C0330918D0340918E0373
:1000E00050918F038091840390918503A0918603A2
:1000F000B0918703281739074A075B0709F060C0EA
:10010000663009F44BC0673021F0643009F069C0F3
:1001100057C08EE890E00E945D0360918C0370915F
:100120008D0380918E0390918F030E94B1038EE91D
:1001300090E00E945D036091900370919103809123
:100140009203909193030E94B1038AEA90E00E9487
:100150005D03609194037091950380919603909153
:1001600097030E94B1038091900390919103A09115
:100170009203B09193038F3F2FEF92072FEFA207C7
:100180002FEFB20711F483E02DC08E5E9E4EAE4E6F
:10019000BE4E11F082E026C084E024C08CEB90E0DB
:1001A0000E945D0382ED90E00E94D50580E29EE40E
:1001B00020E931E0F9013197F1F70197D9F711C042
:1001C00081EE90E00E945D0389EF90E00E94D505EA
:1001D00080E29EE420E931E0F9013197F1F70197DF
:1001E000D9F781E0DF91CF9108950F931F930E947B
:1001F000A7048DE091E00E94F2040E948E08082F6F
:1002000085E191E00E945D03002391F484E291E096
:100210000E945D038AE391E00E94D50580E29EE49E
:1002200020E931E0F9013197F1F70197D9F767C07B
:10023000013009F064C08EE491E00E945D0381E02A
:1002400090E00E9420096093880370938903809353
:100250008A0390938B0300E41CE9C8010197F1F72E
:1002600084E090E00E9420096093980370939903C2
:1002700080939A0390939B03C8010197F1F788E05C
:1002800090E00E942009609384037093850380931B
:10029000860390938703C8010197F1F780E691E008
:1002A0000E945D0380918803909189030E94D3038B
:1002B00086E791E00E945D038091980390919903F5
:1002C0000E94D3038FE891E00E945D038091840334
:1002D000909185030E94D30381EA91E00E945D031F
:1002E00084EA91E00E94D50580E29EE420E931E0B5
:1002F000F9013197F1F70197D9F781E001C080E06A
:100300001F910F91089582EB91E00E945D0360912F
:1003100098037091990380919A0390919B03209187
:100320009403309195034091960350919703620F87
:10033000731F841F951F609394037093950380939C
:100340009603909397030E94FE07873009F03FC001
:1003500086EC91E00E945D0380919803909199034F
:100360000E94D3038EED91E00E945D03809194037F
:10037000909195030E94D30381EE91E00E94D505F0
:1003800080919803909199030E942F068EED91E041
:100390000E94F204609194037091950380919603FA
:1003A000909197030E940D0680E29EE420E931E0DF
:1003B000F9013197F1F70197D9F780E29EE420E93E
:1003C00031E0F9013197F1F70197D9F711C088EFC2
:1003D00091E00E94D50580E29EE420E931E0F90138
:1003E0003197F1F70197D9F78DE092E00E945D0314
:1003F000109298031092990310929A0310929B0303
:1004000084E090E040E050E060E070E00E94260967
:1004100080E49CE90197F1F781E0089585E292E09C
:100420000E945D038BE392E00E94D505FFCF1F93EE
:10043000CF93DF9386E592E00E945D0320919403C1
:10044000309195038091880390918903281739078B
:1004500008F059C08AE692E00E945D03809188030B
:10046000909189030E94D30380E892E00E945D038B
:1004700080919403909195030E94D30382E992E0C6
:100480000E945D030E94FF0480E060E00E94C705B7
:100490008EEA92E00E94F204809190039091910381
:1004A0000E942F0680E06EE00E94C70580918803BD
:1004B000909189030E942F0681E060E00E94C705A9
:1004C00088EB92E00E94F20480919403909195034E
:1004D0000E942F0680E197E220E931E0F90131978F
:1004E000F1F70197D9F70E94FF0482EC92E00E9495
:1004F000F20480E395E720E931E0F9013197F1F763
:100500000197D9F7B2C00E94FF0480E060E00E942A
:10051000C7058EEA92E00E94F204809190039091C8
:1005200091030E942F0680E06EE00E94C705809133
:100530008803909189030E942F0681E060E00E9469
:10054000C70588EB92E00E94F20480919403909199
:1005500095030E942F0660919403709195038091FA
:1005600096039091970320918803309189034091DD
:100570008A0350918B03621B730B840B950B609362
:1005800094037093950380939603909397030E942E
:10059000FE07873009F058C084ED92E00E945D03A9
:1005A000409188035091890360918A0370918B0375
:1005B0008091980390919903A0919A03B0919B0325
:1005C000480F591F6A1F7B1F40939803509399034C
:1005D00060939A0370939B0384E090E00E94260945
:1005E00080E49CE90197F1F780E197E220E931E0AE
:1005F000F9013197F1F70197D9F710E0C0E9D1E09F
:1006000081E069E00E94C7058EEE92E00E94F2044C
:1006100088E893E1FE013197F1F70197D9F781E07E
:1006200069E00E94C70580919403909195030E9410
:100630002F0688E893E1FE013197F1F70197D9F78A
:100640001F5F1530E9F611C086EF92E00E94F204B8
:1006500080E29EE420E931E0F9013197F1F701975A
:10066000D9F78BE093E00E945D0381E0DF91CF91A9
:100670001F910895D19AD99A0895582FD99880E456
:1006800093E00197F1F741E020E030E060E473E0AF
:10069000842F852311F0D99A01C0D998CB010197F5
:1006A000F1F7440F2F5F3F4F2830310589F7D99A72
:1006B00080E493E00197F1F708951F93CF93DF93C0
:1006C000EC0110E003C00E943D031F5FFE01E10F3B
:1006D000F11D80818823B9F7DF91CF911F91089593
:1006E000CF93DF93EC01FC01849105C021960E9419
:1006F0003D03FE0184918823C9F7DF91CF910895CE
:100700008A3010F0895A01C0805D0E943D0308952F
:100710001F93182F82958F700E948003812F8F70F6
:100720000E9480031F9108951F93182F892F0E9404
:100730008803812F0E9488031F910895EF92FF92F2
:100740000F931F937B018C01C801AA27BB270E942E
:100750009403C7010E9494031F910F91FF90EF90A3
:1007600008950F931F93DF93CF93CDB7DEB76497B0
:100770000FB6F894DEBF0FBECDBF8E010F5F1F4FC7
:10078000A8012AE030E00E94FB08C8010E945D0336
:1007900064960FB6F894DEBF0FBECDBFCF91DF9148
:1007A0001F910F9108950F931F93DF93CF93CDB7B0
:1007B000DEB764970FB6F894DEBF0FBECDBF8E01D3
:1007C0000F5F1F4FB8014AE050E00E94DA08C801ED
:1007D0000E945D0364960FB6F894DEBF0FBECDBFD6
:1007E000CF91DF911F910F9108951F93182F82953C
:1007F0008F708A3020F490E00E94D30303C0895C9C
:100800000E943D03812F8F708A3020F490E00E9477
:10081000D30303C0895C0E943D031F91089588E1C2
:100820008AB986E880BD83E389B910BC08951BB8F6
:100830001AB810BC19B810BC089582E08BB988E9C9
:100840008AB986E880BD80E189B910BC08955D9BB6
:10085000FECF8CB908955F9BFECF8CB10895FC014B
:1008600004C05D9BFECF8CB9319680818823C9F787
:100870000895909383038093820308951F920F92AB
:100880000FB60F9211242F933F934F935F936F9363
:100890007F938F939F93AF93BF93EF93FF93E091D9
:1008A0008203F09183030995FF91EF91BF91AF917E
:1008B0009F918F917F916F915F914F913F912F9178
:1008C0000F900FBE0F901F9018950F931F93DF93FB
:1008D000CF93CDB7DEB764970FB6F894DEBF0FBEE7
:1008E000CDBF8E010F5F1F4FB8014AE050E00E945C
:1008F000DA08C8010E942F0464960FB6F894DEBF90
:100900000FBECDBFCF91DF911F910F910895AE988B
:1009100098B3282F207F9F70292B28BBAF9A20E403
:100920003FE1F9013197F1F7AF9895E09A95F1F72A
:1009300098B38295807F9F70982B98BBAF9AC9011E
:100940000197F1F7AF98C9010197F1F708950F9357
:100950001F9387B3806F87BB84B3806C84BB88B3DD
:100960008F7088BB85B38F7385BB00E41FE1C8011E
:100970000197F1F783E30E94870482E30E948704D2
:1009800088E20E9487048EE00E94870481E00E9432
:100990008704C8010197F1F786E00E9487041F9140
:1009A0000F910895AE9A98B3282F207F9F70292B1E
:1009B00028BBAF9A20E43FE1F9013197F1F7AF98F6
:1009C00095E09A95F1F798B38295807F9F70982B68
:1009D00098BBAF9AC9010197F1F7AF98C901019788
:1009E000F1F70895CF93DF93EC0103C00E94D20486
:1009F000219688818823D1F7DF91CF91089581E0F6
:100A00000E948704089580E40E9487048EE00E947B
:100A1000D2048EE00E94D20484E00E94D2048EE0D0
:100A20000E94D20485E10E94D20484E00E94D20494
:100A30008AE00E94D2048AE00E94D20480E00E94F0
:100A4000D20480E00E94D2048AE00E94D20480E0B6
:100A50000E94D20480E00E94D20481E10E94D2046C
:100A60008EE00E94D20480E00E94D2048EE00E94B8
:100A7000D20481E10E94D20481E10E94D2048FE17C
:100A80000E94D2048BE10E94D2048BE10E94D20426
:100A90008FE10E94D20480E00E94D20480E00E9494
:100AA000D20480E00E94D2048AE00E94D20485E150
:100AB0000E94D20481E10E94D2048EE00E94D204FE
:100AC00084E00E94D20480E00E94D20480E00E9470
:100AD000D20480E00E94D20480E00E94D20481E02F
:100AE0000E94D20481E00E94D20481E00E94D204DC
:100AF0008FE10E94D20480E00E94D20480E00E9434
:100B0000D20480E00E94D20480E00E94D20480E0FF
:100B10000E94D20480E00E94D2048EE00E94D2049F
:100B200081E10E94D2048EE00E94D20480E00E9403
:100B3000D20480E00E94D20480E00E94D20480E0CF
:100B40000E94D2048EE00E94D20481E00E94D2046E
:100B50008FE10E94D20480E00E94D20486E00E94CD
:100B6000D20484E00E94D2048EE00E94D20480E08D
:100B70000E94D20484E00E94D20484E00E94D20445
:100B800084E00E94D20484E00E94D2040895882365
:100B900029F4862F80680E9487040895813021F40B
:100BA000862F806C0E94870408951F93CF93DF9354
:100BB000EC010E94FF0410E00AC00E94D2041F5FF3
:100BC000103121F481E060E00E94C7052196888100
:100BD000882399F7DF91CF911F9108950F931F9369
:100BE000CF93DF938C01C7E0D0E0C8010C2E02C088
:100BF000959587950A94E2F780FF02C081E301C0D2
:100C000080E30E94D20421978FEFCF3FD80769F786
:100C1000DF91CF911F910F9108950F931F93DF9351
:100C2000CF93CDB7DEB764970FB6F894DEBF0FBE93
:100C3000CDBF8E010F5F1F4FA8012AE030E00E9458
:100C4000FB08C8010E94F20464960FB6F894DEBF58
:100C50000FBECDBFCF91DF911F910F9108950F93DC
:100C60001F93DF93CF93CDB7DEB764970FB6F89499
:100C7000DEBF0FBECDBF8E010F5F1F4FB8014AE030
:100C800050E00E94DA08C8010E94F20464960FB690
:100C9000F894DEBF0FBECDBFCF91DF911F910F91B2
:100CA00008951F93982F92959F70182F1F709A3058
:100CB00028F4892F90E00E942F0617C09A3011F473
:100CC00081E411C09B3011F482E40DC09C3011F41A
:100CD00083E409C09D3011F484E405C09E3011F412
:100CE00085E401C086E40E94D2041A3028F4812FE2
:100CF00090E00E942F0617C01A3011F481E411C051
:100D00001B3011F482E40DC01C3011F483E409C0DF
:100D10001D3011F484E405C01E3011F485E401C0D7
:100D200086E40E94D2041F9108952FB7F894809111
:100D300074039CB1E82FF0E0E456FC4F90838F5F82
:100D400080937403843611F4109274032FBF0895B6
:100D5000582FACE9B3E0282F392FF90106C09D9137
:100D60008191981711F080E008958E2F851B8617CA
:100D7000B0F381E0089585E50E94270485E50E948F
:100D8000270480E00E94270480E00E94270480E07E
:100D90000E94270480E00E94270480E00E9427042C
:100DA0008FEF0E9427040895CF92DF92EF92FF9277
:100DB0000F931F93CF93DF936C01162F1F5F0E9439
:100DC000BB06812F0E942704812F81950E94270452
:100DD00084ED0E94270484EDE82EFF24C12FD0E08B
:100DE00021970BC08601080F191FF80180810E940E
:100DF0002704F8018081E80EF3948F2D90E08C1782
:100E00009D0784F38E2D81950E94270480E00E9427
:100E10002704DF91CF911F910F91FF90EF90DF900A
:100E2000CF90089584E6ECE9F3E0DF011D928A9506
:100E3000E9F71092740308951F93CF93DF93EC01A9
:100E40000E9412078AE493E064E00E94D40688EED0
:100E500093E020E931E0F9013197F1F70197D9F7F3
:100E600020E030E0F901E456FC4FD901A25BBC4F11
:100E700090818C91981711F010E006C02F5F3F4FC2
:100E80002E30310579F711E0EAEAF3E0A5E7B3E0A7
:100E900081918D9383E0E63BF807D1F718821982A0
:100EA0001A821B82E8E7F3E060E070E0208130E026
:100EB00040E050E0062E04C0220F331F441F551F90
:100EC0000A94D2F788819981AA81BB81822B932BC6
:100ED000A42BB52B88839983AA83BB833197685F42
:100EE0007F4F83E0E437F80709F71C821D821E82DA
:100EF0001F82389660E070E0208130E040E050E0F2
:100F0000062E04C0220F331F441F551F0A94D2F728
:100F10008C819D81AE81BF81822B932BA42BB52B1D
:100F20008C839D83AE83BF833197685F7F4F83E05F
:100F3000E837F80709F7188619861A861B86389647
:100F400060E070E0208130E040E050E0062E04C018
:100F5000220F331F441F551F0A94D2F788859985A5
:100F6000AA85BB85822B932BA42BB52B88879987C9
:100F7000AA87BB873197685F7F4F83E0EC37F8071C
:100F800009F7113011F086E001C087E0DF91CF91C1
:100F90001F910895FB0180935F038081809360031C
:100FA0008181809361038281809362038381809336
:100FB00063030E9412078CE593E068E00E94D40668
:100FC00088EE93E020E931E0F9013197F1F70197DC
:100FD000D9F720E030E0F901E456FC4FD901AC59D3
:100FE000BC4F90818C91981711F086E008952F5F87
:100FF0003F4F2031310579F787E00895DF93CF9394
:1010000000D000D0CDB7DEB76C83272F382F492F03
:1010100055272B839C01442755272A83692F77273F
:1010200088279927698386E0BE016F5F7F4F0E9402
:10103000CA070F900F900F900F90CF91DF910895F6
:10104000DF93CF9300D000D0CDB7DEB76C83272FCE
:10105000382F492F55272B839C01442755272A8356
:10106000692F772788279927698385E0BE016F5FFD
:101070007F4F0E94CA070F900F900F900F90CF9153
:10108000DF910895DF93CF9300D000D0CDB7DEB7C6
:101090006C83272F382F492F55272B839C014427FA
:1010A00055272A83692F772788279927698384E022
:1010B000BE016F5F7F4F0E94CA070F900F900F9085
:1010C0000F90CF91DF910895BC0184E00E94CA0780
:1010D00008950E94120789E393E063E00E94D4061A
:1010E00088EE93E020E931E0F9013197F1F70197BB
:1010F000D9F720E030E0F901E456FC4FD901A45CB7
:10110000BC4F90818C91981711F082E008952F5F69
:101110003F4F2E30310579F783E008950E943A035E
:1011200078940E941D0485E996E00E9439040E948B
:10113000120786E293E064E00E94D40688EE93E012
:1011400020E931E0F9013197F1F70197D9F720E073
:1011500030E0F901E456FC4FD901A65DBC4F908107
:101160008C91981711F080E008952F5F3F4F2F303A
:10117000310579F781E0089580E0823091F0833085
:1011800028F4882341F08130C1F708C0833061F032
:10119000843099F70CC00E94F500EFCF0E944900FF
:1011A000ECCF0E941702E9CF0E940E02E6CF0E9408
:1011B0008301E3CFFB019F01E8944230C4F0453244
:1011C000B4F44A3029F497FB1EF4909581959F4F13
:1011D000642F77270E946009805D8A330CF0895D57
:1011E0008193CB010097A1F716F45DE25193108231
:1011F000C9010C943309FA01CF93FF93EF93223086
:10120000CCF02532BCF4C22F2C2F3327442755278E
:10121000FF93EF930E947409EF91FF91605D6A3331
:101220000CF0695D6193B901CA0160507040804063
:10123000904051F710828F919F91CF910C94330978
:10124000A6E1B0E044E050E00C944509242F0E9450
:101250005409252F0E9454090C942E090E94530909
:10126000272F0C945409DC01FC01672F719177231F
:10127000E1F7329704C07C916D9370836291AE1751
:10128000BF07C8F30895DC01CB01FC01E199FECF53
:1012900006C0FFBBEEBBE09A31960DB20D924150F5
:1012A0005040B8F70895262FE199FECF9FBB8EBB23
:1012B0002DBB0FB6F894E29AE19A0FBE01960895FD
:1012C000AA1BBB1B51E107C0AA1FBB1FA617B7076C
:1012D00010F0A61BB70B881F991F5A95A9F7809588
:1012E0009095BC01CD010895A1E21A2EAA1BBB1B4B
:1012F000FD010DC0AA1FBB1FEE1FFF1FA217B307E2
:10130000E407F50720F0A21BB30BE40BF50B661FF7
:10131000771F881F991F1A9469F7609570958095BB
:1013200090959B01AC01BD01CF010895F894FFCFCA
:10133000206964656C5F7374617465200D0A0050E8
:101340006C65617365205363616E20546167002092
:1013500054616720206578697374200D0A000D0AB6
:1013600020436F6D70616E792049442020000D0A82
:10137000205461672049442020000D0A20506F69E5
:101380006E7473204E756D626572200020657272F6
:101390006F722072656164696E6720546167200D09
:1013A0000A004572726F722072656164696E67200F
:1013B00000206572726F7220546167204E6F742036
:1013C00056616C6964200D0A004572726F72205478
:1013D0006167204E6F742056616C69640077656C9C
:1013E000636F6D650020696E69745F737461746505
:1013F000200D0A00204E4643204E6F7420436F6E2E
:101400006E6563746564200D0A00506C65617365D8
:1014100020636F6E6E656374204E46432000204E3D
:10142000464320436F6E6E6563746564200D0A0049
:101430000D0A204D616368696E655F706F696E7437
:1014400073203D2020000D0A20746F74616C5F6C66
:101450006F61645F706F696E7473203D2020000DB2
:101460000A20436F6D70616E795F4944203D2020F2
:10147000000D0A004E464320636F6E6E656374650F
:101480006400204C6F616420436172642053746176
:101490007465200D0A0020446F6E65206C6F6164D6
:1014A000696E6720506F696E7473200D0A002020EA
:1014B00000446F6E65206C6F6164696E6720506FC9
:1014C000696E7473203D20004572726F72206C6FDC
:1014D0006164696E6720506F696E74730045727243
:1014E0006F72206C6F6164696E6720506F696E74F3
:1014F00073200D0A00206D61737465725F63617201
:10150000645F7374617465200D0A00312D506C6145
:1015100079205468652047616D6520322D536574CC
:1015200074696E67730020757365725F63617264BE
:101530005F7374617465200D0A000D0A204D6163AC
:1015400068696E655F706F696E7473203D2020005E
:101550000D0A2074616720506F696E7473203D20FE
:1015600020000D0A204E6F7420656E6F756768202D
:1015700074616720706F696E7473200D0A00546186
:1015800067204944203A2000506F696E7473203AF6
:1015900020004E6F7420456E6F75676820506F692C
:1015A0006E74730020446F6E6520777269746520D5
:1015B00054616720506F696E7473200D0A002020FB
:1015C0002020202020004572726F7220777269748B
:1015D000696E6720506F696E747300206572726F58
:1015E000722077726974652054616720506F696E4C
:1015F0007473200D0A00140114010000FF00FF00A5
:101600000000FF02FED51516004A01000000FF0091
:10161000FF000000FF0FF1D54B0140013004000036
:10162000FF00FF000000FF13EDD541004001A200C4
:10163000000000000000FF00FF000000FF03FDD5D8
:041640004100EA007B
:00000001FF
