:100000000C942A000C9447000C9447000C94470071
:100010000C9447000C9447000C9447000C94470044
:100020000C9447000C9447000C9447000C94470034
:100030000C9447000C9402040C9447000C94470065
:100040000C9447000C9447000C9447000C94470014
:100050000C94470011241FBECFE5D8E0DEBFCDBF12
:1000600013E0A0E6B0E0E4E8F2E102C005900D92F2
:10007000A033B107D9F713E0A0E3B3E001C01D92AC
:10008000AC3BB107E1F70E9480080C9440090C9446
:100090000000CF93DF9380E690E00E9421038FE67B
:1000A00090E00E949905C0E9D1E00E942D0820EA65
:1000B0003FE0FE013197F1F721503040D1F7833016
:1000C000A1F78FE790E00E94210388E493E00E946B
:1000D000E006682F209148033091490340914A037C
:1000E00050914B038091400390914103A0914203B2
:1000F000B0914303281739074A075B0709F046C048
:10010000663091F1673021F0643009F050C03EC094
:100110008EE890E00E9421036091480370914903AA
:1001200080914A0390914B030E9475038EE990E001
:100130000E94210360914C0370914D0380914E0306
:1001400090914F030E9475038AEA90E00E94210378
:100150006091500370915103809152039091530329
:100160000E94750382E024C08CEB90E00E94210382
:1001700082ED90E00E94990580E29EE420E931E062
:10018000F9013197F1F70197D9F711C081EE90E0AD
:100190000E94210389EF90E00E94990580E29EE48D
:1001A00020E931E0F9013197F1F70197D9F781E0C2
:1001B000DF91CF9108950F931F930E946B048DE000
:1001C00091E00E94B6040E945208082F85E191E058
:1001D0000E942103002391F484E291E00E94210314
:1001E0008AE391E00E94990580E29EE420E931E0F3
:1001F000F9013197F1F70197D9F767C0013009F09C
:1002000064C08EE491E00E94210381E090E00E94AE
:10021000E4086093440370934503809346039093EE
:10022000470300E41CE9C8010197F1F784E090E07E
:100230000E94E4086093540370935503809356031F
:1002400090935703C8010197F1F788E090E00E946E
:10025000E4086093400370934103809342039093BA
:100260004303C8010197F1F780E691E00E94210362
:1002700080914403909145030E94970386E791E0A3
:100280000E94210380915403909155030E9497038B
:100290008FE891E00E9421038091400390914103F7
:1002A0000E94970381EA91E00E94210384EA91E091
:1002B0000E94990580E29EE420E931E0F90131973E
:1002C000F1F70197D9F781E001C080E01F910F910C
:1002D000089582EB91E00E94210360915403709194
:1002E000550380915603909157032091500330910C
:1002F00051034091520350915303620F731F841FA7
:10030000951F609350037093510380935203909311
:1003100053030E94C207873009F03FC086EC91E08A
:100320000E94210380915403909155030E949703EA
:100330008EED91E00E942103809150039091510332
:100340000E94970381EE91E00E94990580915403E9
:10035000909155030E94F3058EED91E00E94B60442
:100360006091500370915103809152039091530317
:100370000E94D10580E29EE420E931E0F901319745
:10038000F1F70197D9F780E29EE420E931E0F90125
:100390003197F1F70197D9F711C088EF91E00E94EA
:1003A000990580E29EE420E931E0F9013197F1F707
:1003B0000197D9F78DE092E00E9421031092540337
:1003C00010925503109256031092570381E008953E
:1003D00085E292E00E9421038BE392E00E9499055E
:1003E000FFCF1F93CF93DF9386E592E00E94210316
:1003F0002091500330915103409152035091530387
:100400008091440390914503A0914603B091470326
:10041000281739074A075B0708F041C00E94C30448
:1004200080E060E00E948B058AE692E00E94B604BC
:1004300080914C0390914D030E94F30580E06EE0A3
:100440000E948B0580914403909145030E94F3051F
:1004500081E060E00E948B0584E792E00E94B60490
:1004600080915003909151030E94F30580E197E23F
:1004700020E931E0F9013197F1F70197D9F70E94AE
:10048000C3048EE792E00E94B60480E395E720E97A
:1004900031E0F9013197F1F70197D9F7AAC00E942D
:1004A000C30480E060E00E948B058AE692E00E942F
:1004B000B60480914C0390914D030E94F30580E0B7
:1004C0006EE00E948B0580914403909145030E9449
:1004D000F30581E060E00E948B0584E792E00E94D2
:1004E000B60480915003909151030E94F3056091EE
:1004F00050037091510380915203909153032091C6
:100500004403309145034091460350914703621BD9
:10051000730B840B950B609350037093510380937E
:100520005203909353030E94C207873009F050C0D2
:1005300080E992E00E942103809154039091550339
:10054000A0915603B0915703209144033091450385
:100550004091460350914703820F931FA41FB51F7C
:100560008093540390935503A0935603B09357037D
:1005700080E197E220E931E0F9013197F1F7019745
:10058000D9F710E0C0E9D1E081E069E00E948B0575
:100590008AEA92E00E94B60488E893E1FE0131976E
:1005A000F1F70197D9F781E069E00E948B0580910E
:1005B0005003909151030E94F30588E893E1FE01F6
:1005C0003197F1F70197D9F71F5F1530E9F611C0A0
:1005D00082EB92E00E94B60480E29EE420E931E0E2
:1005E000F9013197F1F70197D9F787EC92E00E9472
:1005F000210381E0DF91CF911F910895D19AD99A7B
:100600000895582FD99880E493E00197F1F741E0DD
:1006100020E030E060E473E0842F852311F0D99A64
:1006200001C0D998CB010197F1F7440F2F5F3F4FDD
:100630002830310589F7D99A80E493E00197F1F7E2
:1006400008951F93CF93DF93EC0110E003C00E9445
:1006500001031F5FFE01E10FF11D80818823B9F7BF
:10066000DF91CF911F910895CF93DF93EC01FC01AF
:10067000849105C021960E940103FE018491882384
:10068000C9F7DF91CF9108958A3010F0895A01C0DF
:10069000805D0E94010308951F93182F82958F702B
:1006A0000E944403812F8F700E9444031F9108957C
:1006B0001F93182F892F0E944C03812F0E944C03F7
:1006C0001F910895EF92FF920F931F937B018C016E
:1006D000C801AA27BB270E945803C7010E945803DC
:1006E0001F910F91FF90EF9008950F931F93DF9349
:1006F000CF93CDB7DEB764970FB6F894DEBF0FBEC9
:10070000CDBF8E010F5F1F4FA8012AE030E00E948D
:10071000BF08C8010E94210364960FB6F894DEBF9B
:100720000FBECDBFCF91DF911F910F9108950F9311
:100730001F93DF93CF93CDB7DEB764970FB6F894CE
:10074000DEBF0FBECDBF8E010F5F1F4FB8014AE065
:1007500050E00E949E08C8010E94210364960FB6D3
:10076000F894DEBF0FBECDBFCF91DF911F910F91E7
:1007700008951F93182F82958F708A3020F490E08F
:100780000E94970303C0895C0E940103812F8F7030
:100790008A3020F490E00E94970303C0895C0E9495
:1007A00001031F91089588E18AB986E880BD83E33B
:1007B00089B910BC08951BB81AB810BC19B810BC80
:1007C000089582E08BB988E98AB986E880BD80E126
:1007D00089B910BC08955D9BFECF8CB908955F9BCD
:1007E000FECF8CB10895FC0104C05D9BFECF8CB997
:1007F000319680818823C9F7089590933F038093B1
:100800003E0308951F920F920FB60F9211242F935B
:100810003F934F935F936F937F938F939F93AF9388
:10082000BF93EF93FF93E0913E03F0913F0309954F
:10083000FF91EF91BF91AF919F918F917F916F91B8
:100840005F914F913F912F910F900FBE0F901F908E
:1008500018950F931F93DF93CF93CDB7DEB76497AF
:100860000FB6F894DEBF0FBECDBF8E010F5F1F4FD6
:10087000B8014AE050E00E949E08C8010E94F303BC
:1008800064960FB6F894DEBF0FBECDBFCF91DF9157
:100890001F910F910895AE9898B3282F207F9F70D5
:1008A000292B28BBAF9A20E43FE1F9013197F1F7FA
:1008B000AF9895E09A95F1F798B38295807F9F70F5
:1008C000982B98BBAF9AC9010197F1F7AF98C9016E
:1008D0000197F1F708950F931F9387B3806F87BB3C
:1008E00084B3806C84BB88B38F7088BB85B38F73EF
:1008F00085BB00E41FE1C8010197F1F783E30E9483
:100900004B0482E30E944B0488E20E944B048EE079
:100910000E944B0481E00E944B04C8010197F1F74B
:1009200086E00E944B041F910F910895AE9A98B3F0
:10093000282F207F9F70292B28BBAF9A20E43FE10E
:10094000F9013197F1F7AF9895E09A95F1F798B3DF
:100950008295807F9F70982B98BBAF9AC9010197B1
:10096000F1F7AF98C9010197F1F70895CF93DF939D
:10097000EC0103C00E949604219688818823D1F758
:10098000DF91CF91089581E00E944B04089580E4A7
:100990000E944B048EE00E9496048EE00E94960412
:1009A00084E00E9496048EE00E94960485E10E94F5
:1009B000960484E00E9496048AE00E9496048AE0ED
:1009C0000E94960480E00E94960480E00E949604B3
:1009D0008AE00E94960480E00E94960480E00E94D3
:1009E000960481E10E9496048EE00E94960480E0C5
:1009F0000E9496048EE00E94960481E10E94960473
:100A000081E10E9496048FE10E9496048BE10E948E
:100A100096048BE10E9496048FE10E94960480E088
:100A20000E94960480E00E94960480E00E94960452
:100A30008AE00E94960485E10E94960481E10E946A
:100A400096048EE00E94960484E00E94960480E062
:100A50000E94960480E00E94960480E00E94960422
:100A600080E00E94960481E00E94960481E00E944A
:100A7000960481E00E9496048FE10E94960480E033
:100A80000E94960480E00E94960480E00E949604F2
:100A900080E00E94960480E00E94960480E00E941C
:100AA00096048EE00E94960481E10E9496048EE0F6
:100AB0000E94960480E00E94960480E00E949604C2
:100AC00080E00E94960480E00E9496048EE00E94DE
:100AD000960481E00E9496048FE10E94960480E0D3
:100AE0000E94960486E00E94960484E00E94960488
:100AF0008EE00E94960480E00E94960484E00E94AA
:100B0000960484E00E94960484E00E94960484E0A7
:100B10000E9496040895882329F4862F80680E94F5
:100B20004B040895813021F4862F806C0E944B0481
:100B300008951F93CF93DF93EC010E94C30410E04C
:100B40000AC00E9496041F5F103121F481E060E02A
:100B50000E948B0521968881882399F7DF91CF9198
:100B60001F9108950F931F93CF93DF938C01C7E0DC
:100B7000D0E0C8010C2E02C0959587950A94E2F743
:100B800080FF02C081E301C080E30E9496042197A8
:100B90008FEFCF3FD80769F7DF91CF911F910F916A
:100BA00008950F931F93DF93CF93CDB7DEB764976C
:100BB0000FB6F894DEBF0FBECDBF8E010F5F1F4F83
:100BC000A8012AE030E00E94BF08C8010E94B604D4
:100BD00064960FB6F894DEBF0FBECDBFCF91DF9104
:100BE0001F910F9108950F931F93DF93CF93CDB76C
:100BF000DEB764970FB6F894DEBF0FBECDBF8E018F
:100C00000F5F1F4FB8014AE050E00E949E08C801E4
:100C10000E94B60464960FB6F894DEBF0FBECDBF37
:100C2000CF91DF911F910F9108951F93982F929567
:100C30009F70182F1F709A3028F4892F90E00E941F
:100C4000F30517C09A3011F481E411C09B3011F400
:100C500082E40DC09C3011F483E409C09D3011F48E
:100C600084E405C09E3011F485E401C086E40E944E
:100C700096041A3028F4812F90E00E94F30517C0E3
:100C80001A3011F481E411C01B3011F482E40DC05C
:100C90001C3011F483E409C01D3011F484E405C054
:100CA0001E3011F485E401C086E40E9496041F9171
:100CB00008952FB7F894809130039CB1E82FF0E0AD
:100CC000E85AFC4F90838F5F80933003843611F491
:100CD000109230032FBF0895582FA8E5B3E0282FB6
:100CE000392FF90106C09D918191981711F080E08C
:100CF00008958E2F851B8617B0F381E0089585E552
:100D00000E94EB0385E50E94EB0380E00E94EB0369
:100D100080E00E94EB0380E00E94EB0380E00E94F1
:100D2000EB0380E00E94EB038FEF0E94EB0308953A
:100D3000CF92DF92EF92FF920F931F93CF93DF93A7
:100D40006C01162F1F5F0E947F06812F0E94EB030C
:100D5000812F81950E94EB0384ED0E94EB0384EDCB
:100D6000E82EFF24C12FD0E021970BC08601080F89
:100D7000191FF80180810E94EB03F8018081E80EC1
:100D8000F3948F2D90E08C179D0784F38E2D819521
:100D90000E94EB0380E00E94EB03DF91CF911F9153
:100DA0000F91FF90EF90DF90CF90089584E6E8E5F3
:100DB000F3E0DF011D928A95E9F710923003089560
:100DC0001F93CF93DF93EC010E94D60686E093E059
:100DD00064E00E94980688EE93E020E931E0F90192
:100DE0003197F1F70197D9F720E030E0F901E85A9F
:100DF000FC4FD901A65FBC4F90818C91981711F0E0
:100E000010E006C02F5F3F4F2E30310579F711E01B
:100E1000E6E6F3E0A1E3B3E081918D9383E0E2376E
:100E2000F807D1F7188219821A821B82E4E3F3E0F3
:100E300060E070E0208130E040E050E0062E04C029
:100E4000220F331F441F551F0A94D2F788819981BE
:100E5000AA81BB81822B932BA42BB52B88839983EA
:100E6000AA83BB833197685F7F4F83E0E033F80745
:100E700009F71C821D821E821F82389660E070E096
:100E8000208130E040E050E0062E04C0220F331FE6
:100E9000441F551F0A94D2F78C819D81AE81BF817A
:100EA000822B932BA42BB52B8C839D83AE83BF8386
:100EB0003197685F7F4F83E0E433F80709F71886BE
:100EC00019861A861B86389660E070E0208130E033
:100ED00040E050E0062E04C0220F331F441F551F70
:100EE0000A94D2F788859985AA85BB85822B932B96
:100EF000A42BB52B88879987AA87BB873197685F12
:100F00007F4F83E0E833F80709F7113011F086E0EE
:100F100001C087E0DF91CF911F910895FB0180937D
:100F20001B03808180931C03818180931D03828138
:100F300080931E03838180931F030E94D60688E15D
:100F400093E068E00E94980688EE93E020E931E0A3
:100F5000F9013197F1F70197D9F720E030E0F90175
:100F6000E85AFC4FD901A05EBC4F90818C91981734
:100F700011F086E008952F5F3F4F2031310579F75A
:100F800087E00895DF93CF9300D000D0CDB7DEB7D0
:100F90006C83272F382F492F55272B839C014427FB
:100FA00055272A83692F772788279927698386E021
:100FB000BE016F5F7F4F0E948E070F900F900F90C2
:100FC0000F90CF91DF910895DF93CF9300D000D0A1
:100FD000CDB7DEB76C83272F382F492F55272B83AA
:100FE0009C01442755272A83692F7727882799272B
:100FF000698385E0BE016F5F7F4F0E948E070F906F
:101000000F900F900F90CF91DF910895DF93CF93C2
:1010100000D000D0CDB7DEB76C83272F382F492FF3
:1010200055272B839C01442755272A83692F77272F
:1010300088279927698384E0BE016F5F7F4F0E94F4
:101040008E070F900F900F900F90CF91DF91089522
:10105000BC0184E00E948E0708950E94D60685EFA9
:1010600092E063E00E94980688EE93E020E931E088
:10107000F9013197F1F70197D9F720E030E0F90154
:10108000E85AFC4FD901A850BD4F90818C91981718
:1010900011F082E008952F5F3F4F2E30310579F730
:1010A00083E008950E94FE0278940E94E10389E59E
:1010B00096E00E94FD030E94D60682EE92E064E074
:1010C0000E94980688EE93E020E931E0F90131971B
:1010D000F1F70197D9F720E030E0F901E85AFC4F29
:1010E000D901AA51BD4F90818C91981711F080E0E1
:1010F00008952F5F3F4F2F30310579F781E0089534
:1011000080E0823091F0833028F4882341F08130F0
:10111000C1F708C0833061F0843099F70CC00E9499
:10112000DB00EFCF0E944900ECCF0E94F101E9CF34
:101130000E94E801E6CF0E946901E3CFFB019F0115
:10114000E8944230C4F04532B4F44A3029F497FBB5
:101150001EF4909581959F4F642F77270E940A096E
:10116000805D8A330CF0895D8193CB010097A1F7F4
:1011700016F45DE251931082C9010C94EA08FA0159
:10118000CF93FF93EF932230CCF02532BCF4C22FE3
:101190002C2F332744275527FF93EF930E941E09D6
:1011A000EF91FF91605D6A330CF0695D6193B90165
:1011B000CA01605070408040904051F710828F917A
:1011C0009F91CF910C94EA08A6E1B0E044E050E092
:1011D0000C94FC08DC01FC01672F71917723E1F787
:1011E000329704C07C916D9370836291AE17BF07F4
:1011F000C8F30895DC01CB01FC01E199FECF06C0E4
:10120000FFBBEEBBE09A31960DB20D9241505040BB
:10121000B8F70895AA1BBB1B51E107C0AA1FBB1F4B
:10122000A617B70710F0A61BB70B881F991F5A9572
:10123000A9F780959095BC01CD010895A1E21A2EE1
:10124000AA1BBB1BFD010DC0AA1FBB1FEE1FFF1F6A
:10125000A217B307E407F50720F0A21BB30BE40BBA
:10126000F50B661F771F881F991F1A9469F7609501
:101270007095809590959B01AC01BD01CF010895BB
:04128000F894FFCF10
:10128400206964656C5F7374617465200D0A005095
:101294006C65617365205363616E2054616700203F
:1012A40054616720206578697374200D0A000D0A63
:1012B40020436F6D70616E792049442020000D0A2F
:1012C400205461672049442020000D0A20506F6992
:1012D4006E7473204E756D626572200020657272A3
:1012E4006F722072656164696E6720546167200DB6
:1012F4000A004572726F722072656164696E6720BC
:1013040000206572726F7220546167204E6F7420E2
:1013140056616C6964200D0A004572726F72205424
:101324006167204E6F742056616C69640077656C48
:10133400636F6D650020696E69745F7374617465B1
:10134400200D0A00204E4643204E6F7420436F6EDA
:101354006E6563746564200D0A00506C6561736585
:1013640020636F6E6E656374204E46432000204EEA
:10137400464320436F6E6E6563746564200D0A00F6
:101384000D0A204D616368696E655F706F696E74E4
:1013940073203D2020000D0A20746F74616C5F6C13
:1013A4006F61645F706F696E7473203D2020000D5F
:1013B4000A20436F6D70616E795F4944203D20209F
:1013C400000D0A004E464320636F6E6E65637465BC
:1013D4006400204C6F616420436172642053746123
:1013E4007465200D0A0020446F6E65206C6F616483
:1013F400696E6720506F696E7473200D0A00202097
:1014040000446F6E65206C6F6164696E6720506F75
:10141400696E7473203D20004572726F72206C6F88
:101424006164696E6720506F696E747300457272EF
:101434006F72206C6F6164696E6720506F696E749F
:1014440073200D0A00206D61737465725F636172AD
:10145400645F7374617465200D0A00312D506C61F2
:1014640079205468652047616D6520322D53657479
:1014740074696E67730020757365725F636172646B
:101484005F7374617465200D0A00546167204944D8
:10149400203A2000506F696E7473203A20004E6F1A
:1014A4007420456E6F75676820506F696E747300A1
:1014B40020446F6E652077726974652054616720DB
:1014C400506F696E7473200D0A00202020202020A4
:1014D40020004572726F722077726974696E67209A
:1014E400506F696E747300206572726F7220777228
:1014F4006974652054616720506F696E7473200DA0
:101504000A00140114010000FF00FF000000FF02A4
:10151400FED51516004A01000000FF00FF00000080
:10152400FF0FF1D54B01400130040000FF00FF0024
:101534000000FF13EDD541004001A20000000000AF
:101544000000FF00FF000000FF03FDD54100EA009A
:00000001FF
