:100000000C942A000C9447000C9447000C94470071
:100010000C9447000C9447000C9447000C94470044
:100020000C9447000C9447000C9447000C94470034
:100030000C9447000C9478000C9447000C944700F3
:100040000C9447000C9447000C9447000C94470014
:100050000C94470011241FBECFE5D8E0DEBFCDBF12
:1000600011E0A0E6B0E0ECE6FEE002C005900D92E3
:10007000A033B107D9F711E0A0E3B1E001C01D92B0
:10008000A43AB107E1F70E94BD040C9434070C9424
:10009000000088E18AB986E880BD83E389B910BC95
:1000A00008951BB81AB810BC19B810BC089582E0A6
:1000B0008BB988E98AB986E880BD80E189B910BC2E
:1000C00008955D9BFECF8CB908955F9BFECF8CB1E8
:1000D0000895FC0104C05D9BFECF8CB931968081F0
:1000E0008823C9F7089590933F0180933E010895B6
:1000F0001F920F920FB60F9211242F933F934F939D
:100100005F936F937F938F939F93AF93BF93EF937F
:10011000FF93E0913E01F0913F010995FF91EF912E
:10012000BF91AF919F918F917F916F915F914F910F
:100130003F912F910F900FBE0F901F9018950F9326
:100140001F93DF93CF93CDB7DEB764970FB6F894C4
:10015000DEBF0FBECDBF8E010F5F1F4FB8014AE05B
:1001600050E00E94A806C8010E94690064960FB67C
:10017000F894DEBF0FBECDBFCF91DF911F910F91DD
:100180000895AE9898B3282F207F9F70292B28BB05
:10019000AF9A20E43FE1F9013197F1F7AF9895E08C
:1001A0009A95F1F798B38295807F9F70982B98BBB2
:1001B000AF9AC9010197F1F7AF98C9010197F1F71B
:1001C00008950F931F9387B3806F87BB84B3806CB0
:1001D00084BB88B38F7088BB85B38F7385BB00E405
:1001E0001FE1C8010197F1F783E30E94C10082E398
:1001F0000E94C10088E20E94C1008EE00E94C100FE
:1002000081E00E94C100C8010197F1F786E00E94D9
:10021000C1001F910F910895AE9A98B3282F207FA7
:100220009F70292B28BBAF9A20E43FE1F901319759
:10023000F1F7AF9895E09A95F1F798B38295807FA2
:100240009F70982B98BBAF9AC9010197F1F7AF98AF
:10025000C9010197F1F70895CF93DF93EC0103C033
:100260000E940C01219688818823D1F7DF91CF91DC
:10027000089581E00E94C100089580E40E94C100B9
:100280008EE00E940C018EE00E940C0184E00E942E
:100290000C018EE00E940C0185E10E940C0184E0BB
:1002A0000E940C018AE00E940C018AE00E940C016D
:1002B00080E00E940C0180E00E940C018AE00E9414
:1002C0000C0180E00E940C0180E00E940C0181E1A1
:1002D0000E940C018EE00E940C0180E00E940C0143
:1002E0008EE00E940C0181E10E940C0181E10E94DC
:1002F0000C018FE10E940C018BE10E940C018BE14B
:100300000E940C018FE10E940C0180E00E940C0110
:1003100080E00E940C0180E00E940C018AE00E94B3
:100320000C0185E10E940C0181E10E940C018EE02C
:100330000E940C0184E00E940C0180E00E940C01EC
:1003400080E00E940C0180E00E940C0180E00E948D
:100350000C0181E00E940C0181E00E940C0181E00F
:100360000E940C018FE10E940C0180E00E940C01B0
:1003700080E00E940C0180E00E940C0180E00E945D
:100380000C0180E00E940C0180E00E940C018EE0D4
:100390000E940C0181E10E940C018EE00E940C0180
:1003A00080E00E940C0180E00E940C0180E00E942D
:1003B0000C0180E00E940C018EE00E940C0181E0A3
:1003C0000E940C018FE10E940C0180E00E940C0150
:1003D00086E00E940C0184E00E940C018EE00E94E5
:1003E0000C0180E00E940C0184E00E940C0184E07A
:1003F0000E940C0184E00E940C0184E00E940C0128
:100400000895882329F4862F80680E94C1000895EA
:10041000813021F4862F806C0E94C10008950F93D3
:100420001F93CF93DF938C01C7E0D0E0C8010C2E5F
:1004300002C0959587950A94E2F780FF02C081E398
:1004400001C080E30E940C0121978FEFCF3FD807B6
:1004500069F7DF91CF911F910F9108950F931F932B
:10046000DF93CF93CDB7DEB764970FB6F894DEBFB6
:100470000FBECDBF8E010F5F1F4FB8014AE050E0A5
:100480000E94A806C8010E942C0164960FB6F89439
:10049000DEBF0FBECDBFCF91DF911F910F910895A9
:1004A0001F93982F92959F70182F1F709A3028F4E1
:1004B000892F90E00E942E0217C09A3011F481E437
:1004C00011C09B3011F482E40DC09C3011F483E420
:1004D00009C09D3011F484E405C09E3011F485E418
:1004E00001C086E40E940C011A3028F4812F90E0AC
:1004F0000E942E0217C01A3011F481E411C01B3083
:1005000011F482E40DC01C3011F483E409C01D30E5
:1005100011F484E405C01E3011F485E401C086E4C2
:100520000E940C011F9108952FB7F894809130011B
:100530009CB1E82FF0E0E05CFE4F90838F5F8093EA
:100540003001843611F4109230012FBF0895582FD6
:10055000A0E4B1E0282F392FF90106C09D918191C7
:10056000981711F080E008958E2F851B8617B0F341
:1005700081E0089585E50E94610085E50E946100A3
:1005800080E00E94610080E00E94610080E00E94A3
:10059000610080E00E94610080E00E9461008FEFB6
:1005A0000E9461000895CF92DF92EF92FF920F9325
:1005B0001F93CF93DF936C01162F1F5F0E94BA0227
:1005C000812F0E946100812F81950E94610084ED3E
:1005D0000E946100FF2484EDE82EC12FD0E0219716
:1005E0000BC08601080F191FF80180810E9461006D
:1005F000F8018081E80EF3948F2D90E08C179D0711
:1006000084F38E2D81950E94610080E00E9461003C
:10061000DF91CF911F910F91FF90EF90DF90CF90DE
:10062000089584E6E0E4F1E0DF011D928A95E9F7A0
:100630001092300108951F93CF93DF93EC010E9435
:10064000110386E091E064E00E94D30288EE93E01B
:1006500020E931E0F9013197F1F70197D9F720E06E
:1006600030E0F901E05CFE4FD901A65FBE4F9081FA
:100670008C91981711F010E006C02F5F3F4F2E307D
:10068000310579F711E0EEE4F1E0A1E3B1E0819109
:100690008D9381E0EA35F807D1F72091310130E000
:1006A00040E050E0288339834A835B838091DE00F9
:1006B00090E0A0E0B0E0281739074A075B0709F08F
:1006C00087C02091320130E040E050E02C833D8330
:1006D0004E835F838091DF0090E0A0E0B0E02817B8
:1006E00039074A075B0709F073C02091330130E0F6
:1006F00040E050E0288739874A875B878091E00097
:1007000090E0A0E0B0E0281739074A075B0709F03E
:100710005FC02091340130E040E050E02C873D87FD
:100720004E875F878091E10090E0A0E0B0E028175D
:1007300039074A075B0709F04BC0E8E3F1E020E026
:1007400030E040E050E060E070E0808190E0A0E0C8
:10075000B0E0062E04C0880F991FAA1FBB1F0A9481
:10076000D2F7282B392B4A2B5B2B3197685F7F4FB1
:1007700081E0E433F80749F7288B398B4A8B5B8B90
:10078000389620E030E040E050E060E070E08081AA
:1007900090E0A0E0B0E0062E04C0880F991FAA1FC9
:1007A000BB1F0A94D2F7282B392B4A2B5B2B31978E
:1007B000685F7F4F81E0E833F80749F72C8B3D8B6A
:1007C0004E8B5F8B113011F086E003C087E001C0D3
:1007D00084E0DF91CF911F910895FB0180931B016D
:1007E000808180931C01818180931D01828180938F
:1007F0001E01838180931F010E94110388E191E013
:1008000068E00E94D30288EE93E020E931E0F9012C
:100810003197F1F70197D9F720E030E0F901E05C7A
:10082000FE4FD901A05EBE4F90818C91981711F0B8
:1008300086E008952F5F3F4F2031310579F787E03B
:100840000895DF93CF9300D000D0CDB7DEB76C838F
:10085000272F382F492F55272B839C0144275527B5
:100860002A83692F772788279927698386E0BE0125
:100870006F5F7F4F0E94ED030F900F900F900F90CE
:10088000CF91DF910895DF93CF9300D000D0CDB703
:10089000DEB76C83272F382F492F55272B839C01D8
:1008A000442755272A83692F772788279927698323
:1008B00085E0BE016F5F7F4F0E94ED030F900F90A8
:1008C0000F900F90CF91DF910895BC0184E00E94BA
:1008D000ED0308950E94110385EF90E063E00E940C
:1008E000D30288EE93E020E931E0F9013197F1F786
:1008F0000197D9F720E030E0F901E05CFE4FD90123
:10090000A850BF4F90818C91981711F082E0089504
:100910002F5F3F4F2E30310579F783E008950E9415
:10092000D30578940E94570084E992E00E947300F6
:100930000E94110382EE90E064E00E94D30288EEF0
:1009400093E020E931E0F9013197F1F70197D9F708
:1009500020E030E0F901E05CFE4FD901AA51BF4F21
:1009600090818C91981711F080E008952F5F3F4F90
:100970002F30310579F781E00895CF92DF92EF9221
:10098000FF921F93DF93CF93CDB7DEB768970FB673
:10099000F894DEBF0FBECDBF0E94E10080E690E07C
:1009A0000E942C010E948F04882309F4ECC081303E
:1009B00009F0E9C080E9E82E81E0F82E6E01089484
:1009C000C11CD11C0E94390188E690E00E942C01D4
:1009D0000E946A0420EA3FE0F7013197F1F72150C5
:1009E0003040D1F78330A1F7C6010E941B03873046
:1009F00009F0A0C08D899E89AF89B88D4497A10563
:100A0000B105B8F50E94390180E060E00E94010262
:100A100088E790E00E942C0189899A890E942E0221
:100A200080E06EE00E94010284E190E00E942E02CC
:100A300081E060E00E94010282E890E00E942C01C7
:100A40008D899E890E942E0280E197E2F7013197FD
:100A5000F1F70197D9F70E9439018CE890E00E94E4
:100A60002C0180E395E7F7013197F1F70197D9F76A
:100A7000A9CF0E94390180E060E00E94010288E76E
:100A800090E00E942C0189899A890E942E0280E0C0
:100A90006EE00E94010284E190E00E942E0281E05B
:100AA00060E00E94010282E890E00E942C018D89A2
:100AB0009E890E942E026D897E898F89988D64514E
:100AC0007040804090406D8B7E8B8F8B988F0E9402
:100AD0002104873051F580E197E2F7013197F1F772
:100AE0000197D9F710E081E069E00E9401028EE9E8
:100AF00090E00E942C0188E893E1F7013197F1F72B
:100B00000197D9F781E069E00E9401028D899E89F1
:100B10000E942E0288E893E1F7013197F1F70197DF
:100B2000D9F71F5F1530F9F64DCF86EA90E00E94A5
:100B30002C0148CF863071F40E9439018BEB90E094
:100B40000E942C0180E29EE4F7013197F1F70197B2
:100B5000D9F738CF843009F035CF0E9439018AECBB
:100B600090E00E942C0181E060E00E94010288ED8B
:100B700090E00E942C0180E29EE4F7013197F1F7AA
:100B80000197D9F71FCF80E090E068960FB6F894F0
:100B9000DEBF0FBECDBFCF91DF911F91FF90EF90D1
:100BA000DF90CF900895D19AD99A0895582FD99867
:100BB00080E493E00197F1F741E020E030E060E469
:100BC00073E0842F852311F0D99A01C0D998CB0105
:100BD0000197F1F7440F2F5F3F4F2830310589F718
:100BE000D99A80E493E00197F1F708951F93CF938A
:100BF000DF93EC0110E003C00E94D6051F5FFE01E9
:100C0000E10FF11D80818823B9F7DF91CF911F910A
:100C10000895CF93DF93EC01FC01849105C02196E8
:100C20000E94D605FE0184918823C9F7DF91CF91F8
:100C300008958A3010F0895A01C0805D0E94D6055F
:100C400008951F93182F82958F700E941906812F87
:100C50008F700E9419061F9108951F93182F892FD6
:100C60000E942106812F0E9421061F910895EF9274
:100C7000FF920F931F937B018C01C801AA27BB270A
:100C80000E942D06C7010E942D061F910F91FF9013
:100C9000EF9008950F931F93DF93CF93CDB7DEB7F7
:100CA00064970FB6F894DEBF0FBECDBF8E010F5F05
:100CB0001F4FA8012AE030E00E94C906C8010E9427
:100CC000F60564960FB6F894DEBF0FBECDBFCF9188
:100CD000DF911F910F9108950F931F93DF93CF938F
:100CE000CDB7DEB764970FB6F894DEBF0FBECDBFA9
:100CF0008E010F5F1F4FB8014AE050E00E94A80626
:100D0000C8010E94F60564960FB6F894DEBF0FBEC8
:100D1000CDBFCF91DF911F910F9108951F93182F91
:100D200082958F708A3020F490E00E946C0603C098
:100D3000895C0E94D605812F8F708A3020F490E064
:100D40000E946C0603C0895C0E94D6051F9108951D
:100D5000FB019F01E8944230C4F04532B4F44A30BC
:100D600029F497FB1EF4909581959F4F642F772768
:100D70000E94FE06805D8A330CF0895D8193CB0171
:100D80000097A1F716F45DE251931082C9010C940B
:100D9000EE06FA01CF93FF93EF932230CCF0253289
:100DA000BCF4C22F2C2F332744275527FF93EF93F2
:100DB0000E941207EF91FF91605D6A330CF0695D4C
:100DC0006193B901CA01605070408040904051F772
:100DD00010828F919F91CF910C94EE06DC01FC0163
:100DE000672F71917723E1F7329704C07C916D935F
:100DF00070836291AE17BF07C8F30895AA1BBB1B8F
:100E000051E107C0AA1FBB1FA617B70710F0A61B0A
:100E1000B70B881F991F5A95A9F780959095BC012B
:100E2000CD010895A1E21A2EAA1BBB1BFD010DC026
:100E3000AA1FBB1FEE1FFF1FA217B307E407F5078A
:100E400020F0A21BB30BE40BF50B661F771F881F66
:100E5000991F1A9469F760957095809590959B01FC
:0C0E6000AC01BD01CF010895F894FFCF54
:100E6C0077656C636F6D6500506C656173652053BD
:100E7C0063616E2054616700546167204944203AD5
:100E8C002000506F696E7473203A20004E6F7420EE
:100E9C00456E6F75676820506F696E747300202003
:100EAC002020202020004572726F722077726974A6
:100EBC00696E6720506F696E7473004572726F7241
:100ECC002072656164696E6720004572726F7220D2
:100EDC00546167204E6F740056616C696400E9E8D8
:100EEC00E7E6140114010000FF00FF000000FF0200
:100EFC00FED51516004A01000000FF00FF0000009F
:100F0C00FF0FF1D54B01400130040000FF00FF0042
:100F1C000000FF13EDD541004001A20000000000CD
:100F2C000000FF00FF000000FF03FDD54100EA00B8
:00000001FF
