:100000000C942A000C9447000C9447000C94470071
:100010000C9447000C9447000C9447000C94470044
:100020000C9447000C9447000C9447000C94470034
:100030000C9447000C9495000C9447000C944700D6
:100040000C9447000C9447000C9447000C94470014
:100050000C94470011241FBECFE5D8E0DEBFCDBF12
:1000600011E0A0E6B0E0E4E0F7E002C005900D92F8
:10007000AE30B107D9F711E0AEE0B1E001C01D929A
:10008000A838B107E1F70E9458010C9480030C9442
:10009000000088E18AB986E880BD83E389B910BC95
:1000A00008951BB81AB810BC19B810BC089582E0A6
:1000B0008BB988E98AB986E880BD80E189B910BC2E
:1000C00008955D9BFECF8CB908955F9BFECF8CB1E8
:1000D0000895FC0104C05D9BFECF8CB931968081F0
:1000E0008823C9F708950F931F93DF93CF93CDB75C
:1000F000DEB764970FB6F894DEBF0FBECDBF8E019A
:100100000F5F1F4FB8014AE050E00E94F402C8019F
:100110000E94690064960FB6F894DEBF0FBECDBF93
:10012000CF91DF911F910F9108951F920F920FB6FB
:100130000F9211242F938F939F93EF93FF932FB7D9
:10014000F89480910E019CB1E82FF0E0EC5DFE4F39
:1001500090838F5F80930E01843611F410920E010C
:100160002FBFFF91EF919F918F912F910F900FBE15
:100170000F901F90189585E50E94610085E50E940B
:10018000610080E00E94610080E00E94610080E0E8
:100190000E94610080E00E94610080E00E94610096
:1001A0008FEF0E9461000895CF92DF92EF92FF924D
:1001B0000F931F93CF93DF936C01162F1F5F0E9445
:1001C000BB00812F0E946100812F81950E946100F8
:1001D00084ED0E94610084EDE82EFF24C12FD0E061
:1001E00021970BC08601080F191FF80180810E941A
:1001F0006100F8018081E80EF3948F2D90E08C1758
:100200009D0784F38E2D81950E94610080E00E94FD
:100210006100DF91CF911F910F91FF90EF90DF90E0
:10022000CF90089584E6E4E2F1E0DF011D928A9523
:10023000E9F710920E010895FF920F931F938C011E
:10024000F62E80E690E00E944202A4E2B1E0F801BE
:100250000AC09D918191981731F08AE690E00E9442
:10026000420280E009C08E2F801B8F1590F380E83A
:1002700090E00E94420281E01F910F91FF9008954B
:100280000E9457000E94120180EC90E064E00E94FE
:10029000D40088EE93E020E931E0F9013197F1F7DD
:1002A0000197D9F784EC90E06FE00E941C0108955B
:1002B000CF93DF930E941F0278940E9440010E9416
:1002C000120183ED90E063E00E94D40088EE93E099
:1002D00020E931E0F9013197F1F70197D9F786ED7F
:1002E00090E06EE00E941C010E94120184EE90E0FA
:1002F00064E00E94D40088EE93E020E931E0F90147
:100300003197F1F70197D9F788EE90E06EE00E94FF
:100310001C01E2E3F1E0A7E1B1E081918D9381E07E
:10032000EE33F807D1F782E990E00E944202809113
:1003300017010E94DA02809118010E94DA0280916E
:1003400019010E94DA0280911A010E94DA02CBE1BF
:10035000D1E020E030E040E050E060E070E08991E2
:1003600090E0A0E0B0E0062E04C0880F991FAA1FFD
:10037000BB1F0A94D2F7282B392B4A2B5B2B685FC3
:100380007F4F81E0CF31D80751F720930F01309391
:100390001001409311015093120182EA90E00E94F3
:1003A000420260910F0170911001809111019091B2
:1003B00012010E94960210920F01109210011092E9
:1003C00011011092120120911301309114014091FA
:1003D000150150911601FE0160E070E0819190E0FE
:1003E000A0E0B0E0062E04C0880F991FAA1FBB1F13
:1003F0000A94D2F7282B392B4A2B5B2B685F7F4F4F
:1004000081E0E332F80751F7209313013093140190
:1004100040931501509316018EEA90E00E9442022B
:100420006091130170911401809115019091160152
:100430000E94960280E090E0DF91CF910895D19ADA
:10044000D99A0895582FD99880E493E00197F1F74D
:1004500041E020E030E060E473E0842F852311F078
:10046000D99A01C0D998CB010197F1F7440F2F5FBA
:100470003F4F2830310589F7D99A80E493E00197FE
:10048000F1F708951F93CF93DF93EC0110E003C0C1
:100490000E9422021F5FFE01E10FF11D808188236F
:1004A000B9F7DF91CF911F910895CF93DF93EC01BE
:1004B000FC01849105C021960E942202FE018491D4
:1004C0008823C9F7DF91CF9108958A3010F0895AB7
:1004D00001C0805D0E94220208951F93182F82950B
:1004E0008F700E946502812F8F700E9465021F919C
:1004F00008951F93182F892F0E946D02812F0E944B
:100500006D021F910895EF92FF920F931F937B014D
:100510008C01C801AA27BB270E947902C7010E944B
:1005200079021F910F91FF90EF9008950F931F9301
:10053000DF93CF93CDB7DEB764970FB6F894DEBFE5
:100540000FBECDBF8E010F5F1F4FA8012AE030E024
:100550000E941503C8010E94420264960FB6F894E7
:10056000DEBF0FBECDBFCF91DF911F910F910895D8
:100570000F931F93DF93CF93CDB7DEB764970FB67A
:10058000F894DEBF0FBECDBF8E010F5F1F4FB801C5
:100590004AE050E00E94F402C8010E9442026496C0
:1005A0000FB6F894DEBF0FBECDBFCF91DF911F9184
:1005B0000F9108951F93182F82958F708A3020F421
:1005C00090E00E94B80203C0895C0E942202812F41
:1005D0008F708A3020F490E00E94B80203C0895CDA
:1005E0000E9422021F910895FB019F01E89442306E
:1005F000C4F04532B4F44A3029F497FB1EF49095C8
:1006000081959F4F642F77270E944A03805D8A332C
:100610000CF0895D8193CB010097A1F716F45DE2A0
:1006200051931082C9010C943A03FA01CF93FF93BE
:10063000EF932230CCF02532BCF4C22F2C2F33277D
:1006400044275527FF93EF930E945E03EF91FF919C
:10065000605D6A330CF0695D6193B901CA01605055
:1006600070408040904051F710828F919F91CF91C0
:100670000C943A03DC01FC01672F71917723E1F7B9
:10068000329704C07C916D9370836291AE17BF075F
:10069000C8F30895AA1BBB1B51E107C0AA1FBB1FCB
:1006A000A617B70710F0A61BB70B881F991F5A95FE
:1006B000A9F780959095BC01CD010895A1E21A2E6D
:1006C000AA1BBB1BFD010DC0AA1FBB1FEE1FFF1FF6
:1006D000A217B307E407F50720F0A21BB30BE40B46
:1006E000F50B661F771F881F991F1A9469F760958D
:1006F0007095809590959B01AC01BD01CF01089547
:04070000F894FFCF9B
:10070400526573706F6E640D0A00526573706F6E7C
:1007140064204E6F74206D6174636865640D0A0013
:10072400526573706F6E64206D6174636865640DE7
:100734000A000D0A20436F6D70616E7920494420D0
:1007440020000D0A205461672049442020000D0A2E
:1007540020506F696E7473204E756D62657220004F
:10076400140114010000FF00FF000000FF02FED589
:100774001516004A01000000FF00FF000000FF0FF3
:10078400F1D54B01400130040000FF00FF000000E0
:10079400FF13EDD541004001A204EEEEEEEE400160
:0E07A400A205BBBBBBBB4001A206CCCCCCCC9B
:00000001FF
